:1007E000006C00000003000086BA0000000000005A
:1007F00000000000000000000000000000000000F9
:1008000078FFE4B8200118F6D8F99000007F007E48
:1008100007E4F0A3DFFCDEFA758174022761121E83
:100820001E1223AD90021C7401F0220230451216F4
:10083000EB902EC27412F0902EC714F0902ECA14B2
:10084000F0902EC47480F0A3E4F0220220B990400E
:100850007FE493FF64326003EF7002002253A87FAD
:100860000080FD021C80EE30E707C3E49FFFE49E9A
:10087000FE2274C62F122F8FE4F022023042E709C5
:10088000F608DFFA8046E709F208DFFA803E888240
:100890008C83E709F0A3DFFA8032E309F608DFFA78
:1008A0008078E309F208DFFA807088828C83E3099C
:1008B000F0A3DFFA806489828A83E0A3F608DFFA76
:1008C000805889828A83E0A3F208DFFA804C80D2C4
:1008D00080FA80C680D4806980F28033801080A640
:1008E00080EA809A80A880DA80E280CA8033898298
:1008F0008A83ECFAE493A3C8C582C8CCC583CCF044
:10090000A3C8C582C8CCC583CCDFE9DEE7800D89EA
:10091000828A83E493A3F608DFF9ECFAA9F0EDFBF1
:100920002289828A83ECFAE0A3C8C582C8CCC58339
:10093000CCF0A3C8C582C8CCC583CCDFEADEE88092
:10094000DB89828A83E493A3F208DFF980CC88F004
:10095000EF60010E4E60C388F0ED2402B404005035
:10096000B9F582EB2402B4040050AF23234582235F
:100970009008CE73EF8DF0A4A8F0CF8CF0A428CE11
:100980008DF0A42EFE22C2D5EC30E709B2D5E4C327
:100990009DFDE49CFCEE30E715B2D5E4C39FFFE477
:1009A0009EFE120BF2C3E49DFDE49CFC8003120B3F
:1009B000F230D507C3E49FFFE49EFE22C5F0F8A302
:1009C000E028F0C5F0F8E582158270021583E03862
:1009D000F022BB010A89828A83E0F5F0A3E022506D
:1009E0000687F009E71922BBFE07E3F5F009E319D2
:1009F0002289828A83E493F5F074019322BB010774
:100A000089828A830209BC500B09C5F027F7C5F01B
:100A10001937F722BBFE0D09F8E325F0F3C5F019ED
:100A2000E338F322F889828A8374019325F0C5F0B4
:100A3000F8E4933822BB010A89828A83F0E5F0A3A7
:100A4000F0225006F709A7F01922BBFE06F3E5F0E5
:100A500009F3192275F008758200EF2FFFEE33FEBF
:100A6000CD33CDCC33CCC58233C5829BED9AEC9986
:100A7000E58298400CF582EE9BFEED9AFDEC99FC28
:100A80000FD5F0D6E4CEFBE4CDFAE4CCF9A882226F
:100A9000B800C1B90059BA002DEC8BF084CFCECD8F
:100AA000FCE5F0CBF97818EF2FFFEE33FEED33FDC8
:100AB000EC33FCEB33FB10D703994004EB99FB0FAD
:100AC000D8E5E4F9FA227818EF2FFFEE33FEED3384
:100AD000FDEC33FCC933C910D7059BE99A4007ECFC
:100AE0009BFCE99AF90FD8E0E4C9FAE4CCFB227543
:100AF000F010EF2FFFEE33FEED33FDCC33CCC833D7
:100B0000C810D7079BEC9AE899400AED9BFDEC9A38
:100B1000FCE899F80FD5F0DAE4CDFBE4CCFAE4C8B0
:100B2000F922EB9FF5F0EA9E42F0E99D42F0EC6479
:100B300080C864809845F022EB9FF5F0EA9E42F071
:100B4000E99D42F0E89C45F022E8600FECC313FCFD
:100B5000ED13FDEE13FEEF13FFD8F122ECF0A3ED41
:100B6000F0A3EEF0A3EFF022A8828583F0D083D02B
:100B700082120B7F120B7F120B7F120B7FE473E448
:100B800093A3C583C5F0C583C8C582C8F0A3C58338
:100B9000C5F0C583C8C582C822EC8EF0A4CCC5F0D0
:100BA000CCCDF8EFA4CEC5F02DFDE43CFCE8A42E9E
:100BB000C8C5F03DFDE43CFCEFA4FFE5F028FEE4F1
:100BC0003DFDE43CFC22EF4E6012EF60010EEDBBF8
:100BD000010B89828A83F0A3DFFCDEFA2289F050C0
:100BE00007F709DFFCA9F022BBFEFCF309DFFCA933
:100BF000F022BC000BBE0029EF8DF084FFADF02287
:100C0000E4CCF875F008EF2FFFEE33FEEC33FCEE8A
:100C10009DEC984005FCEE9DFE0FD5F0E9E4CEFD7D
:100C200022EDF8F5F0EE8420D21CFEADF075F00850
:100C3000EF2FFFED33FD4007985006D5F0F222C3A9
:100C400098FD0FD5F0EA22208A03020FCA90021FF6
:100C5000E07002A3E06003020FCA90021DE0700280
:100C6000A3E06003020FCA900175E07002A3E06088
:100C700003020FCA1217596003020FCA900134E031
:100C8000703090011F1215D5FFAEF090010D1215B6
:100C9000D5D39FE5F09E4003020FCA1216D2E4900E
:100CA0000181F0A3F01217E7900223121808F571E2
:100CB0008003757100757217E4F5B2F5BA9001857D
:100CC000E0F559A3E0F55AC209758D20438D2075D2
:100CD0008D8043AA08D2AF758B02758EAF20062493
:100CE000121759701F200C1CE5DB20E217758AC40F
:100CF000200C0DE5DB20E20875870300000080066C
:100D0000D2098002D209758B11758A5053AAF7D384
:100D100090021EE0949090021DE09401400EA3E02A
:100D20002470F090021DE034FEF08007E490021D74
:100D3000F0A3F0D390022AE09490900229E094016D
:100D4000400EA3E02470F0900229E034FEF080070A
:100D5000E4900229F0A3F0122E58900055E075F0AF
:100D600006A4902EC3F0A3E4F0A3F012164053990A
:100D70007F12300C1216F5902EC0E030E2F9902E62
:100D8000C0E4F0902E02E0F573A3E0F5744389020D
:100D90001216464380021216F2902EC0E030E2F99D
:100DA000121823F522A3E0F523E5742527FFE57348
:100DB0003526FEC3EF9523F525EE9522F52412176F
:100DC000A1E5259FE5249E40048E248F25902EC406
:100DD000E4F043998090016BE524F0A3E525F0C38E
:100DE000E55A9525FFE5599524FE1208668E5B8F1E
:100DF0005C1218514003020F9FAE24AF257C007D8A
:100E000012120B9912185BAF70AE6FAD6EAC6D9095
:100E100002CF121617FBD3120B389002CF401712D5
:100E2000171D9570FFEE956FFEED956EFDEC956DBF
:100E3000FC12185B8007120B6800000000E47F6062
:100E40007EEAFDFC9002CF121617FBD3120B38403E
:100E50000A9002CF120B680000EA601215D27D09D9
:100E60001217739002CF1216177B0A12165B121814
:100E70005B900134E07042AE59AF5AFC7D09120B11
:100E800099C8ECC8C9EDC9CAEECACBEFCBE4FCFDEA
:100E9000EB2525FFEA3524121689E47B0A12166732
:100EA0008E598F5A9002CF1215E312165512170F52
:100EB0001215ED121655020F9F12170F1215ED1293
:100EC00016559001101215D5FFAEF09002CF1216F4
:100ED00014FBD3120B385003020FAF1215C11217B7
:100EE00052FE1217B94003020FAF90010D1215D533
:100EF000FFAEF07C007D02120B99C8ECC8EDC0E09B
:100F0000EEC0E0EFC0E01215C1121752FEE4FCFD86
:100F1000D0E0FBD0E0FAD0E0F9EB2FFFEA3E12166A
:100F200089E47B0312166790010D1215ED12173735
:100F300090010D1215D5D39430E5F09475400874E6
:100F40007575F030120A35900188E060521216C3B0
:100F5000404D90010D1215D5121752FE12086690E1
:100F600002D3EEF0A3EFF090010D1215D512163456
:100F700095F05010121794400B1215EAF9E475F031
:100F8000051209FD90010D1215D5FFD312163695E5
:100F9000F0400CD312179440061215EA121848209C
:100FA000090D12185150081217597003020CC990FC
:100FB0000187E0041215F5E49001671216BCF09069
:100FC000013504F09002211216E4221215C1FDAC85
:100FD000F0D39FEC9E40329001101215D512182DBF
:100FE000D3EF9430EE9475400C9002D17475F0A359
:100FF0007430F0800D1215CC1217529002D1F0A36C
:10100000EFF0E49001A202107A1215D2FFAEF09038
:1010100001101215D5FDACF0C39FFFEC9EFED3EF7F
:101020009410EE9427400C9002D17427F0A3741012
:10103000F080121215D2FFC3ED9FFEEC95F09002E6
:10104000D1F0A3CEF09002D1E0FFA3E09001A2CFB7
:10105000F0A3EFF0300018D3E0942C9001A2E094BC
:101060000140139001A47427F0A37410F08007E4EA
:101070009001A4F0A3F0E49002D1F0A3F090013429
:10108000E0605012166DD39400EE64809480401A94
:10109000900104E0FCA3E0FDD3EF9DEE9C400B909B
:1010A0000223E4F0A37464F0801BD3900224E09444
:1010B00000900223E09400400C90010D1215D59091
:1010C00002D112172FD20B900229740FF0A374A033
:1010D000F080119002277403F0A374E8F07A00798D
:1010E0004E121609D39002D2E094009002D1E0642F
:1010F000809480500302129EE0F9A3E0FF90010D5E
:101100001215ED12165512166D121841E47BB87ABD
:1011100088F9F8C3120B22500A9002D17488F0A308
:1011200074B8F0D3900226E09400900225E0940079
:10113000500790001BE0B4201D12166DC39496EE6C
:10114000648094805010EF9400EE64809480402F6F
:101150007C007D0A801E300026900134E0702090D3
:1011600001A9E0FCA3E0FD12166DC39DEE9C500F9B
:101170007C007D641209869002D1EEF0A3EFF0901E
:101180000134E07003021278900227E07002A3E0BD
:10119000600302127812166D121841E5512FF551B5
:1011A000E5503EF550E54F3DF54FE54E3CF54E051B
:1011B00053E55370020552C3E55794E8E55694038E
:1011C000405AAE52AF53CBEFCB121697AF51AE5041
:1011D000AD4FAC4E120A909002D3EEF0A3EFF0C3E5
:1011E000E5559FFFE5549EFE1208669002D5EEF08D
:1011F000A3EFF0D39464EE94005006E55545547087
:101200000A9002D3E0F554A3E0F555E4F551F5500A
:10121000F54FF54EF552F553F556F557D3E5559480
:1012200000E554940040281212C890016DEEF0A31E
:10123000EFF0C31212C812183750081217DBE4F58A
:1012400058800CE558C3940750051217DB0558E584
:10125000DB20E23D9001161215D57D0F1217739019
:1012600002D1121622121841EB7B1012165B90016C
:10127000161215EDF9EE8014E5DB20E2149002D190
:10128000E0F9A3E0FF9001161215EDC98FF0120AE4
:10129000359001161215D524A8FFE5F0801D9001A8
:1012A0000D1215ED1217289001161215ED121728C0
:1012B0009002D2E024A8FF9002D1E03461F99001BD
:1012C000131215ED121655229002D2E09555FF909B
:1012D00002D1E09554FE120866221216EB12181283
:1012E000F053997FF50BF50CF50DF50EF50A12305C
:1012F0000C1216401216F5902EC0E030E2F9902E36
:10130000C0E4F0438902121646438002902E02E0A8
:10131000FEA3E0250CF50CEE350BF50B1216F29042
:101320002EC0E030E2F9121823FEA3E0250EF50EE0
:10133000EE350DF50D050AE50AC3940640B0439954
:1013400080902EC5E4F0E527240CFFE52634FEFE50
:10135000D3EF950CEE950B4015900175E07002A34C
:10136000E0701290017504F0A374F4F08007E4902B
:101370000175F0A3F09001671216C64031CBEFCB98
:10138000CAEECAEB250EFFEA350D12173E120B49C5
:101390008E0D8F0EA3E0FEA3E0FBCAEECAEB250C78
:1013A000FFEA350B12173E120B498E0B8F0CE50C22
:1013B0002527FFE50B3526FEC3EF950EF510EE95BC
:1013C0000DF50F1217A1E5109FE50F9E40048E0F3B
:1013D0008F10900165E50FF0A3E510F0A3E50DF087
:1013E000A3E50EF0A3E50BF0A3E50CF0D39001729A
:1013F000E09400900171E094004074900134E0604A
:101400000F90010D1215D5C394A0E5F0940F50096B
:10141000E490016FF0A3F08056D3900170E0940047
:1014200090016FE094004033900171E0FEA3E0FF73
:101430001215B1CAEECACBEFCB90016FE0FEA3E06C
:10144000FF7C007D03120974EB2FFFEA3EFEEF786C
:1014500002CEC313CE13D8F9FF800C900171E0FEC9
:10146000A3E0FFC31215B190016FEEF0A3EFF0D32C
:10147000900170E0940A90016FE094009001734035
:10148000097428F0A37446F080077408F0A3741060
:10149000F0900165E0FFA3E0900171CFF0A3EFF0C1
:1014A000AF10AE0F12253290016BEEF0A3EFF0906B
:1014B000001BE0B4200312160590016BE0FEA3E0D0
:1014C000FFE4FCFDE5652FF565E5643EF564ED356B
:1014D00063F563EC3562F5620567E56770020566E2
:1014E000C3E56B94E8E56A9403402AAE66AF67CB28
:1014F000EFCB121697AF65AE64AD63AC62120A9083
:101500008E688F69E4F565F564F563F562F566F557
:1015100067F56AF56BD3E5699400E568940040745B
:1015200090016CE09569FF90016BE09568FE900278
:10153000D5F0A3EFF0900173E0FDFBC3E49BFBE467
:101540009400FAD3EF9BEA6480F8EE648098401B25
:10155000EDFF9002D6E09F7480F89002D5E06480A1
:101560009850081217C5E4F56C80299002D5E0FE6A
:10157000A3E0FF120866900174E0FDD3EF9D748034
:10158000F86E984003756C03E56CC3940350051224
:1015900017C5056C90016BE0F54CA3E0F54D78287C
:1015A0007C007D007B007A00792A7E007F2402097E
:1015B0004E900166E09FFF900165E09EFE12086676
:1015C00022900110E0FBA3E0FAA3E0F91209D2FF98
:1015D000AEF090010AE0FBA3E0FAA3E0F90209D221
:1015E000900136A3A3E0F9A3E0FF900110E0FBA374
:1015F000E0FAA3E022F07E007F057D007B007A0008
:10160000795D120BC67A0079627E007F0B7D007BCC
:1016100000020BC6E4FCFDE0F8A3E0F9A3E0FAA3A6
:10162000E022C8ECC8C9EDC9CAEECACBEFCBE0FED8
:10163000A3E0FF22FFC390018DE09F90018CE02288
:1016400043AB025389FD5395FD5396FD22A3F0A3AE
:101650007401F0A322C98FF0020A352FFFEA3EFE83
:10166000E93DFDE83CFCE4FAF9F8020A909002D169
:10167000E0FEA3E0FF22E50A25E02428F8E6FE08C4
:10168000E622F9EB2FFFEA35F0FEED39FDEC38FCF0
:1016900022A3E0FEA3E0FBCAEECAE4F9F82290021E
:1016A0001F7402F0A37458F022902E427D14E0FEC5
:1016B000A3E0FF7C0002097490018AE4F0A3F0A388
:1016C000F0A32290018CE0FEA3E0FFD39400EE94FF
:1016D00000227F087A0179367E007D007B01020BB3
:1016E000C69001A9E4F0A374C8F022902EC0740241
:1016F000F02212082E902EC07419F022E50D25E07C
:101700002479F582E43401F583E0FEA3E0FF229022
:1017100002CFA3A3E0F9A3E0FF90010A22E0FCA31B
:10172000E0FDA3E0FEA3E022F9E4F5F0020A35FFB4
:10173000E5F0F0A3EFF022F9EE8FF0020A35FEE4B7
:1017400033FDE433FC780122E4F50EF50DF50CF5DC
:101750000B22C39FFFE5F09E2290001BE064202235
:10176000D3EF9428EE6480948022900108E0FCA3DB
:10177000E0FD22FFAEF07C00020B99AB0EAA0DA992
:101780000CA80BD3020B389002D2E0940A9002D13D
:10179000E09400229002D4E0940A9002D3E09400F6
:1017A00022E5272488FFE5263413FED32290010882
:1017B000E0FFA3E090017FCF22D39001AAE09F90A9
:1017C00001A9E09E2290016BE568F0A3E569F02293
:1017D00025E02428F8A60F08A610229002D1E5548F
:1017E000F0A3E555F022E4900225F0A3F022900149
:1017F00004E4F0A37496F022F9746175F0A8020A6B
:101800003590003A7410F022F0A3F090022BF0A370
:10181000F022902EC4E4F0A322FEEF2401FFE43E68
:10182000C31322902EC0E4F0902E1EE022FFC3EDE1
:101830009FFFEC95F0FE22C3EF9464EE64809480E9
:1018400022EE3395E0FDFC22F974FF75F0FB0209EE
:10185000FDC3E55C9572E55B9571229002CF020BAA
:101860005C900190121617FBE9C0E0EAC0E0EBC003
:10187000E09001251215D5FFE4FCFDD0E0FBD0E09F
:10188000FAD0E0121682900190120B5C900195E064
:1018900004F07006900194E004F0900196E070026C
:1018A000A3E06003021AB890019012171DFFEEC06A
:1018B000E0EFC0E0121691D0E0FFD0E0FE120A90F7
:1018C000900190120B5C900190A3A3E0FFA3E09025
:1018D000018ECFF0A3EFF0A3120B6800000000E42C
:1018E0009001941216BC74C8F090021DE07002A31F
:1018F000E06003021AB8900198E07002A3E0600370
:10190000021AB8900134E070030219BB90018AE01A
:10191000FEA3E0FF4E702290018EE0FDA3E0900157
:101920008ACDF0A3EDF090010D1215D5FD90018C3C
:10193000E5F0F0A3EDF00219C390018EE0FCA3E006
:10194000FDC3EF9DFFEE9CFE12086690019A1215F2
:10195000ED121737900188E0702690019A1215D584
:10196000C3940DE5F09400500F90010D1215D5FFB2
:1019700090018C121730801F9001887401F080173D
:1019800090019A1215D5C39402E5F0940050081204
:1019900016B8F0900188F090018EE0FEA3E0FFD32E
:1019A00090018BE09F90018AE09E4007E4900189BE
:1019B000F080109001897401F080081216B8F09040
:1019C0000188F0900188E07003021AB81216C35023
:1019D00003021AB890010D1215D5121752FE120803
:1019E000669002D1EEF0A3EFF0A3E4F0A37464F0EC
:1019F00090010D1215D5D39494E5F09411400A90FE
:101A000002D37403F0A37420F09002D1A3E09001FC
:101A1000A1F090010D1215D5FFAEF0D31216369E2F
:101A200040159002D3E0FCA3E0FDD39002D2E09DEC
:101A30009002D1E09C501A1216359E50439002D36A
:101A4000E0FEA3E0FF9002D2E09F9002D1E09E4032
:101A50002FE4900188F090018AF0A3F090010D121C
:101A600015D512163495F090019874015007F0A323
:101A7000742CF08005F0A37490F0E4900189F022BA
:101A800090010D1215D5FFD312163695F0400CD3E8
:101A900012178740061215EA12184890010D121508
:101AA000D512163495F05010121787400B1215EA14
:101AB000F9E475F0051209FD22900181E0FEA3E032
:101AC000FFC39404EE9400502A12176AEF25E0FF3A
:101AD000EE33FE74792FF58274013EF583ECF0A3AA
:101AE000EDF0900182E004F07006900181E004F0D6
:101AF000021C22750D011216FCE50D25E02477F578
:101B000082E43401F583EEF0A3EFF0050DE50DB4AA
:101B100004E4900134E07003021BCD900110121513
:101B2000D5FFAEF012176AD39FEC9E5003021C1B28
:101B3000ED9FFFEC9EFED3EF94F4EE940150030270
:101B40001C1BA31215D512182D9002D4F0A3EFF090
:101B5000120866121837505DE49002D6F0A3F09098
:101B600002D4E0FEA3E0FF1208661217604025D3FE
:101B70009002D5E094009002D4E0648094809002BA
:101B8000D64008E4F0A37405F0801074FFF0A3744D
:101B9000FBF08007E49002D6F0A3F01215D2FF907C
:101BA00002D7E02FFE9002D6E035F090017FF0A33F
:101BB000CEF0021C221217ADF0A3EFF09001A7E0C7
:101BC00004F070069001A6E004F0021C221215D267
:101BD000FF12176AC3EF9DFFE5F09CFE120866C373
:101BE00012176150369001101215D5FFC3900109EC
:101BF000E09FFF900108E095F0FE120866C3EF94A5
:101C000014EE648094805005900110800390010AC6
:101C10001215D5FF90017FE5F080031217ADF0A3F8
:101C2000EFF0E4F50CF50BF50AF509F50DD390018D
:101C300082E0950D900181E09400401E1216FCE4B4
:101C4000FCFDE50C2FF50CE50B3EF50BED350AF52B
:101C50000AEC3509F509050D80D3AF0CAE0BAD0AC2
:101C6000AC09EEC0E0EFC0E0900181121692D0E026
:101C7000FFD0E0FE120A908F0C8E0B8D0A8C092289
:101C8000C0E0C083C082C0D0D2AF900230E004F088
:101C9000D390021EE0940090021DE09400400CA33B
:101CA000E024FFF090021DE034FFF0D3900220E02A
:101CB000940090021FE09400400CA3E024FFF090F9
:101CC000021FE034FFF0D3900222E0940090022142
:101CD000E09400400CA3E024FFF0900221E034FFE8
:101CE000F0D3900224E09400900223E09400400C92
:101CF000A3E024FFF0900223E034FFF0D39002260B
:101D0000E09400900225E09400400CA3E024FFF052
:101D1000900225E034FFF0D390022EE09400900270
:101D20002DE09400400CA3E024FFF090022DE0345D
:101D3000FFF0D390022CE0940090022BE09400403E
:101D40000CA3E024FFF090022BE034FFF0D39002CC
:101D500028E09400900227E09400400CA3E024FFC8
:101D6000F0900227E034FFF0C3E56B94E8E56A9455
:101D7000035008056BE56B7002056AC3E55794E8EC
:101D8000E556940350080557E55770020556D39061
:101D90000197E09400900196E09400400CA3E024A9
:101DA000FFF0900196E034FFF0D3900199E09400A9
:101DB000900198E09400400CA3E024FFF09001987B
:101DC000E034FFF0D3900176E09401900175E09447
:101DD00000400CA3E024FFF0900175E034FFF0D345
:101DE00090022AE09400900229E09400400CA3E0C5
:101DF00024FFF0900229E034FFF0D39001A5E09495
:101E0000009001A4E09400400CA3E024FFF09001B6
:101E1000A4E034FFF0D0D0D082D083D0E0327E0076
:101E20007FFF7D007B017A007904120BC69002E3EC
:101E30007400F0A37404F09001D07401F0A3740056
:101E4000F0A374B8F09001D67401F0A37400F0749C
:101E5000AC122D8F7400F0A37494F09001D3740130
:101E6000F0A37400F0A374C6F09001DC7401F0A339
:101E70007400F074D2122D8F7400F0A3741F122D11
:101E8000907401F0A37402F0902DE0E493FF9002AF
:101E9000E3E0FCA3E0FDF5828C83A3EFF090000269
:101EA000E0FFED2404122D69900001E0FFED240510
:101EB000122D69900003E0FFED2406122D69902D8C
:101EC000E2E493FFED2412122D69902DE3E493FFD9
:101ED000ED2414122D699001E57401F0A37400F053
:101EE000A3743CF0E4FF75F002EFA42401F582E551
:101EF000F0342EF583E493FE74542FF582E434001D
:101F0000F583EEF0EF25E0242DF582E4342EF58301
:101F1000E493FE122D97EEF0122D97E0FEEF25E0F0
:101F2000242CF582E4342EF583E49324C0F582E476
:101F3000342EF583EEF00FEFB416AB902F56E090F1
:101F40000058F0902F56E090006EF0902F56E090E1
:101F50000059F0902F56E090006FF09000FF740150
:101F6000F09000FEF090003A7410F090001BF0909A
:101F70000028F0A37420F090021D7413F0A374885D
:101F8000F022121748F515F51685281185291285B6
:101F90002813852914F50A121676FFD3E5149FE558
:101FA000139E40078E138F14850A16C3E5129FE512
:101FB000119E50078E118F12850A15050AE50AB485
:101FC00012D5E4F50FF510F50AE516650A602EE561
:101FD00015650A6028E510450F7010E50A25E02414
:101FE00028F8E6F50F08E6F510801212167625108F
:101FF000FFE50F3E121819F50FEF13F510050AE56E
:102000000AB412C5900185E50FF0A3E510F0E516BE
:10201000C3940F5005E5161217D0E515C3940F5061
:1020200005E5151217D0121748F50A121676FFC3E8
:10203000E5109FFFE50F9EFE120866121760400F25
:10204000E4FCFDE50E2510F50EE50D350F800F12B1
:102050001676FFE4FCFDE50E2FF50EE50D3EF50DC1
:10206000ED350CF50CEC350BF50B050AE50AC394C0
:102070001240B8AF70AE6FAD6EAC6D12177B401AE8
:10208000E50E9570F50EE50D956FF50DE50C956E69
:10209000F50CE50B956DF50B8003121748E47F6096
:1020A0007EEAFDFC12177B400BE4750E60750DEAAD
:1020B000F50CF50BAE0DAF0E22C0E0C083C082C0A0
:1020C000D0ECC0E0EDC0E0EEC0E0EFC0E0D2AFE5A4
:1020D000DB30E419D20CC208E5DB30E102802E903F
:1020E00002E2E5DFF09002E5E4F00221B7E5DB3043
:1020F000E50FD206300805C2080221B7C20C022142
:10210000B7C208E5DB30E13AE5DB30E0109002E6EB
:10211000E0FF04F0123028E0F5DF0221B79002E67C
:10212000E0FFB40813208A10D28A9002E3E0FCA3F7
:10213000E0240712302EE4F0EF641A707AD207021E
:1021400021B79002E5E0700EA3E5DFF09002E574A0
:1021500001F0D20880619002E6E0902DA293FFB4D6
:10216000FF089002E2E5DFF08047EF640F702990EE
:1021700002E6E0FFA3E0FCA3E0FD12302DE0540FE7
:10218000F09002E6E0FF04F0ED12302DE0FFE5DF15
:1021900054F0FEEF4EF0801F9002E6E0FF12302870
:1021A000E5DFF0EFB4240A90021F7401F0A374F489
:1021B000F09002E6E004F075DBFFD0E0FFD0E0FE37
:1021C000D0E0FDD0E0FCD0D0D082D083D0E03290FF
:1021D00002D5EFF09002DAE4F0A374FFF0E4A3F08C
:1021E000A3F0A304F0A374FFF0902EC07402F0904B
:1021F0002EC37408F0E49002D6F0A3F09002D6E06B
:10220000FEA3E0FFC39409EE940040030222BEEF58
:102210009407EE940040067E007F0180199002D65C
:10222000A3E004FFE47E01C8EFC8088006CEA2E761
:1022300013CE13D8F8FF9002D8EEF0A3EFF0902E53
:10224000C07419F0902EC0E030E2F99002D5E0FFA2
:1022500075F002A42400122D7EE0FCA3E0FD902E78
:10226000C07402F0D3ED94FFEC940F40179002D8A5
:10227000E0FCA3E0FD75F002EF122D7BEC8DF01277
:1022800009BC80299002D5E075F002122D7BC08335
:10229000C082E0FEA3E0FF9002D8E0FCA3E0FDC313
:1022A000EF9DFFEE9CD082D083F0A3EFF09002D799
:1022B000E004F070069002D6E004F00221FC7F00FA
:1022C00022900134E060061216D20223A290013659
:1022D000121617FBE9C0E0EAC0E0EBC0E01215D22D
:1022E000FFE4FCFDD0E0FBD0E0FAD0E012168290D3
:1022F0000136120B5C90013BE004F0700690013A4D
:10230000E004F0900221E07002A3E060030223AC3D
:1023100090013612171DFFEEC0E0EFC0E0121691DB
:10232000D0E0FFD0E0FE120A90900136120B5C90D4
:1023300001101215D52432FFE435F0FE900136125B
:102340001614FBD3120B38403990021DE07002A323
:10235000E0702F200B2C90013DE004F070069001FE
:102360003CE004F0D390013DE0940590013CE09402
:1023700000401E1215E0121655E490013CF0A3F047
:10238000800F1215E0121655E490013CF0A3F0C244
:102390000B900136120B6800000000E490013AF047
:1023A000A3F09002217402F0A374BCF0227FA07A03
:1023B0000179081216D890010A7401F0A37400F094
:1023C000744412164D7400F0744612164D7400F0E9
:1023D000A3744812164E7400F0A3743212164E7491
:1023E00000F0A3742E12164E7400F0A3742CF0901B
:1023F00001257401F0A37400F0A37426F090019AF3
:102400007401F0A37400F0A3748412164E7400F0EB
:10241000A37486F09001287401F0A37400F0A374F3
:102420001C12164E7400F0A37422F090011C74016B
:10243000F0A37400F0A3743612164E7400F0A37467
:102440002A12164E7400F0A37438F01216E19001AF
:102450001C1215EDF9E475F0C8120A3590011F122F
:1024600015EDF9E475F064120A351217EE900122A9
:102470001215EDF9E475F096020A359002D1EEF0EE
:10248000A3EF1215F59002D1E07002A3E0600312F1
:102490002697122A10E4900181F0A3F07F12122EE9
:1024A0008E12169EA37402F0A374BCF0900108E093
:1024B000F9A3E0FFA31215ED12165590010D1215A8
:1024C000ED1217289001131215ED1217F89001164E
:1024D0001215ED1217289001191215ED1217F812A6
:1024E0001801E4900134F0900136120B68000000EE
:1024F0000090013A1216BBF09001081215E5121671
:1025000055E4900135F090022D121808900229F040
:10251000A3F0FE7F12FD7B017A017988120BC69031
:1025200001251215D590018E12172F9001961216C3
:10253000E4229002D7EEF0A3EFF0E560455F700C67
:102540009002D7E0F55FA3E0F56080169002D8E036
:102550002560FF9002D7E0355F121819F55FEF1381
:10256000F5600561E561D3940A400D855F5D856086
:102570005EE4F55FF560F561D3E55E9400E55D949A
:1025800000405D9002D8E0955EFF9002D7E0955D37
:10259000FE120866C3EF940AEE64809480AE5DAFCD
:1025A0005E501C7C007D03120B999002D7121622FC
:1025B000E4FCFDEB2FFFEA3E12168978028016CB71
:1025C000EFCBCAEECA9002D7E0FEA3E0FFEB2FFFED
:1025D000EA3E12173E120B499002D7EEF0A3EFF03D
:1025E0009002D7E0FEA3E0FF22D390021EE0940009
:1025F00090021DE0940040030226963000299001CD
:10260000A4E07002A3E09001A96009740BF0A37428
:10261000B8F080077405F0A374DCF0900104740531
:10262000F0A37414F080061216E11217EE90010D5B
:102630001215D5FFAEF01217B94013900134E060C7
:102640001ED3900105E09F900104E09E501190027E
:1026500025E07002A3E0702790013404F080209000
:10266000001BE0B420051217E68006900225121622
:10267000E4E4900134F0900223F0A3F012180190EA
:102680000134E06011900028E090003AB410047426
:1026900010F0227420F0227F01122B13902E42E0C2
:1026A000FEA3E024B1FFEE34FE9002D3F0A3EFF0DE
:1026B00012164053997F122E5812300C1216EB90BE
:1026C0002EC314F01216F5902EC0E030E2F9902ED1
:1026D000C0E4F0902E027D121216AE8E268F2712C5
:1026E0000B99EF24E0F570EE34B1F56FED34FFF5A2
:1026F0006EEC34FFF56D43890212164643800243A7
:102700009980902EC5E4F0900107E0900021F0122E
:1027100016A9EF2408FFEE3420F99001281215EDD8
:10272000C98FF0020A35022EE9E493A3F8E493A3DB
:102730004003F68001F208DFF48029E493A3F85403
:1027400007240CC8C333C4540F4420C8834004F486
:1027500056800146F6DFE4800B0102040810204099
:1027600080902896E47E019360BCA3FF543F30E53F
:1027700009541FFEE493A360010ECF54C025E0600E
:10278000A840B8E493A3FAE493A3F8E493A3C8C5DC
:1027900082C8CAC583CAF0A3C8C582C8CAC583CACD
:1027A000DFE9DEE780BE90023AE014601B1460436C
:1027B0002402705D900244E0B4010A90023A1228AB
:1027C00012D205D200C203227F02122C6BEF6007E7
:1027D0007F02120872C205900244E0703490023AFF
:1027E0007402F0D203C205C2007F031208727F0395
:1027F000022AC27F03122C6BEF60167F031208724D
:10280000900244E090023A7003F08003122812C252
:1028100003227401F07F021208727F02122AC22280
:10282000CDEFCD43AD105399EF439A10539BEF90EA
:102830002EC07402F0147E00C8EDC8088005C333B2
:10284000CE33CED8F9FF902EC4EEF0A3EFF0902E49
:10285000C8EEF0A3EFF07410122F75902EC0E03088
:10286000E2F9902EC0E4F07402F07420122F7590FB
:102870002EC0E030E2F9902E00E0FEA3E0FF902EA3
:10288000C4E4F0A3F0902EC0F0439910539AEF5394
:102890009BEF5390EF22C10C41023E0041023F00EA
:1028A00041023B0041024300C102C101C104410297
:1028B000440041023A00C103C100C1054102E500E4
:1028C0004102E6004202E00000C106C108C1074122
:1028D00002E2104101030041010710C10BC10A418E
:1028E00001A80002260000046D000000004101065E
:1028F0001041024500009002CF7408F0A3E4F0A359
:10290000743FF0A374DFF0E4FDFCF9758A10538A7C
:10291000EF009002CFE0FEA3E02DF582EE3CF583C0
:10292000E493FF69F90DBD00010CBC37E5BDDFE2A2
:102930009002D1123035E493699002E370091230AD
:1029400035A37403F08006123035A3E4F0758A5085
:10295000538AEF0022200A06200303300509E4FF12
:10296000FE12247BC20A2290022BE07002A3E060D8
:1029700005121759703A200003122BE6122A107F15
:1029800001122E8E121AB99002CFEEF0A3EFF07B57
:10299000017A0279CF122B5C9002CF121714121514
:1029A000ED121655120FCB1225E91218611222C131
:1029B000122D2E2290021CE024FE601314602314BA
:1029C00060272403704990021C7402F012303E7F8D
:1029D000017E0012247B90021C7403F0E490023B01
:1029E000F02290021C7404F0221227A6122CAD12C1
:1029F00027A6900175E07004A3E06401700C9001BB
:102A000075F0A3F090021C7402F0E4900230F02202
:102A10004389025395FD5396FD438002122FAF7FE9
:102A20000C122820CAEECACBEFCB7F0C122820EF65
:102A30002BFFEE3A9002D4F0A3EFF0122F81F9129F
:102A400009D245F07006122F66EE80181209D2FBEB
:102A5000AAF0122F66EF2BFFEE3AC313F9EF13FF24
:102A6000122F81C98FF0120A3522122D87F5828E1E
:102A700083A3E0B4AA031228F6122D87FF122D7249
:102A8000E0B41008EF122D72E4F0D20A122D87FF85
:102A9000241B122D74E0700DEF241C122D74E0B471
:102AA0001003122BA3122D872413122D74E0FFB4F0
:102AB00010069002447401F0EFB42005E490024443
:102AC000F0229002CFEFF0E024C6122F8FE06003D7
:102AD0007F01229002CFE0FF24C6122F8F7401F0F5
:102AE000EF122F97E493FE740193FFE4FCFD902F07
:102AF00060E0F8A3E0F9A3E0FAA3E02FFFEA3EFECE
:102B0000ED39EC389002CFE0122FA3EEF0A3EFF0F6
:102B10007F0022CDEFCD121640122E58ED601C53CF
:102B2000997F12082E902E5EE4F0A374FFF07F0FC1
:102B30001221CF902EC4E4F043998053997F902EB8
:102B400042E4F0A374FFF012300C7F011221CF4356
:102B50008902121646438002439980229002D1EBEB
:102B6000F0A3EAF0A3E9F090021FE07002A3E07086
:102B700031900135E0602BE4900135F0122A1012FB
:102B8000169E7508017F01122E8E121AB99002D17D
:102B90001215ED1217370508E508C3941240E61226
:102BA00017E622122DE4E4F5F275F30875EEFF75D1
:102BB000EF3F75EA81F5F675EB0700E5EC30E7FBD2
:102BC000E4F5EC9002E3E0FEA3E0FF241BF582E4D1
:102BD0003EF583E5F3F0EF241CF582E43EF583E552
:102BE000F2F075EB302230073FC207902E42E0FF33
:102BF000A3E09002D1CFF0A3EFF0E4FF122B131269
:102C000016A9EF2408FFEE3420FE9001281215EDDE
:102C10001217371216EB9002D1E0FFA3E0902E427C
:102C2000CFF0A3EFF012169E22758B11902F6474D3
:102C300040F0E4FEE4FFEF75F003A42458F582E4CD
:102C40003402F583E5822EF582E43583F583E4F0E2
:102C50000FEFB40AE10EEEB403DA7F099002C6E486
:102C6000F0A3DFFC902F647480F022CBEFCB122F07
:102C70008CE06036902F60A3A3E0FEA3E0FFEB1290
:102C80002FA3E0FCA3E0FDD39FEC9E501DC3EF9D5E
:102C9000FFEE9CFEEB122F97C37401939FE4939E6B
:102CA0004008122F8CE4F07F01227F002212175976
:102CB00070299001A8E0700312169E9001A874017B
:102CC000F0900029E0B42008122955120C47800327
:102CD000122EBC90022F7401F08010E49001A8F035
:102CE00012295590022FE06002E4F0022FD2758A7B
:102CF00050538AEF9000027411F09000017422F09A
:102D00009000037433F0E4F5AB75AC1DF5ADF5AF91
:102D10007589FF75913F7599FFF59675931CF59B25
:102D2000F595F592F59A5388FCD28AD20D2290003F
:102D30003AE0FC900106E06C602E90003AE0FE90D4
:102D40000106F090000BE0900243F0540FF0EEB457
:102D50002005E04420800AECB4100B900243E044CC
:102D600010F090000BF0C28A22F582E43CF583EF6C
:102D7000F022241AF582E43EF58322A42440F58251
:102D8000E5F0342EF583229002E3E0FEA3E022A3D7
:102D9000F0A37401F0A322746A2FF582E43400F5E5
:102DA000832200000000FFFFFFFF0000FFFFFFFF86
:102DB000FFFFFFFFFF00FF000000FFFF000000FF1C
:102DC000FFFFFFFFFFFF00000000FFFFFFFFFFFF0F
:102DD000FFFFFFFF00000000123048022C29000016
:102DE0000300AB6C74AA7583F5758255A57455758F
:102DF00083FA7582AAA574A57583F5758255A522F7
:102E0000029103030A180DA00EA60FFF0C020BFF80
:102E100023F724062504070127062A0628062B0681
:102E200029032C032D042E042F042604021103066B
:102E30000A100D400E800FFF0C020BFF23F4240438
:102E40002504070127102A1028042B0429032C032A
:102E50002D202E202F1026201216EB121812F0FF14
:102E600074542FF582E43400F583E0FE75F002EF30
:102E7000A42400F582E5F0342EF583E49324C0F514
:102E800082E4342EF583EEF00FEFB416D3229002D5
:102E9000D4EFF0122E58E4F5099002D4E0FFE509D2
:102EA000C39F50071212DA050980EE902EC0E4F09D
:102EB000121F82900108EEF0A3EFF022E4F5B2F5C4
:102EC000BA758D20438D20538D7F53AAF7F58BE57E
:102ED000DB20E211200C0EE4F58A75870300000068
:102EE000758A50D20A758B112212084E53A87F1290
:102EF0002CEE12081E122F1543A880122DD8900018
:102F0000FFE0600690021C7401F0122FF0122A6A92
:102F10001229B480F59002E3E0FFA3E09002E7CF2E
:102F2000F0A3EFF0E4F5DA75DA4043DA2075D74024
:102F300075DA5875D90143A90875B80875F80822DB
:102F400001F40028002801F4009603E801F403E8E6
:102F50001770006403E8003202580258012C01F493
:102F600003E8271000C89002D4E0FEA3E0FF7C0035
:102F70007D12020974902EC2F0902EC0E04419F028
:102F800022900125E0FBA3E0FAA3E02274C62BF512
:102F900082E43402F5832225E02454F582E4342FC0
:102FA000F5832225E02446F582E43402F58322905D
:102FB0002EC07402F0902EC77474F0902ECD74C0A1
:102FC000F0A374FFF0A3F0902EC37401F0902ECA0A
:102FD000F022E5B230E005E5AA20E013E4900231EA
:102FE000F075B28E75B6F9F5B743B20143AA012266
:102FF000E4FF3006169002E3E0FCA3E0F5828C8348
:10300000E0FE54F0FFEE540FF0C206221216EB90D1
:103010002EC27491F0902EC77401F0902ECA7418CD
:10302000F01218127402F022A3E0FCA3E02FF58244
:10303000E43CF58322E0FEA3E0F5828E83221218A1
:103040000122D2AF32D2AF32022FD20000000000F4
:103050000000000000000000000000000000000070
:103060000000000000000000000000000000000060
:103070000000000000000000000000000000000050
:103080000000000000000000000000000000000040
:103FD000000000000000000000000000000000E5FC
:103FE00000000000000000000000000000000000D1
:103FF00000000000000000000000000000000000C1
:00000001FF
