:1000000048000000170000008C5C0800170000008A
:10001000F05C080017000000F45C08001700000006
:10002000F85C080017000000FC5C080017000000E6
:10003000005D080017000000045D080017000000C4
:10004000085D0800170000000C5D080017000000A4
:10005000105D080017000000145D08001700000084
:10006000185D080017000000345D0800170000004C
:10007000445D0800170000005C5D080017000000E8
:10008000605D080017000000905D08001700000088
:10009000945D080017000000C45D08001700000010
:1000A000C85D080017000000F85D08001700000098
:1000B000FC5D0800170000002C5E0800170000001F
:1000C000305E080017000000605E080017000000A6
:1000D000645E080017000000945E0800170000002E
:1000E000985E080017000000C85E080017000000B6
:1000F000CC5E080017000000FC5E0800170000003E
:10010000005F080017000000305F080017000000C3
:10011000345F080017000000645F0800170000004B
:10012000685F080017000000985F080017000000D3
:100130009C5F080017000000CC5F0800170000005B
:10014000D05F0800170000000060080017000000E2
:100150000460080017000000346008001700000069
:1001600038600800170000006860080017000000F1
:100170006C600800170000009C6008001700000079
:10018000A060080017000000D06008001700000001
:10019000D460080017000000046108001700000088
:1001A000086108001700000038610800170000000F
:1001B0003C610800170000006C6108001700000097
:1001C00070610800170000008C6108001700000033
:1001D00090610800170000009C61080017000000F3
:1001E000A461080017000000A861080017000000C3
:1001F000B461080017000000BC610800170000008F
:10020000C061080017000000CC6108001700000062
:10021000D461080017000000D86108001700000032
:10022000E461080017000000EC61080017000000FE
:10023000F061080017000000FC61080017000000D2
:1002400004620800170000000862080017000000A0
:1002500014620800170000001C620800170000006C
:1002600020620800170000002C6208001700000040
:100270003462080017000000386208001700000010
:1002800044620800170000004C62080017000000DC
:1002900050620800170000005C62080017000000B0
:1002A0006462080017000000686208001700000080
:1002B00074620800170000007C620800170000004C
:1002C00080620800170000008C6208001700000020
:1002D00094620800170000009862080017000000F0
:1002E000A462080017000000AC62080017000000BC
:1002F000B062080017000000BC6208001700000090
:10030000C462080017000000C8620800170000005F
:10031000D462080017000000DC620800170000002B
:10032000E062080017000000EC62080017000000FF
:10033000F462080017000000F862080017000000CF
:1003400004630800170000000C6308001700000099
:1003500010630800170000001C630800170000006D
:10036000246308001700000028630800170000003D
:1003700034630800170000003C6308001700000009
:1003800040630800170000004C63080017000000DD
:1003900054630800170000005863080017000000AD
:1003A00064630800170000006C6308001700000079
:1003B00070630800170000007C630800170000004D
:1003C000846308001700000088630800170000001D
:1003D00094630800170000009C63080017000000E9
:1003E000A063080017000000AC63080017000000BD
:1003F000B463080017000000B8630800170000008D
:10040000C463080017000000CC6308001700000058
:10041000D063080017000000DC630800170000002C
:10042000E463080017000000E863080017000000FC
:10043000F463080017000000FC63080017000000C8
:1004400000640800170000000C640800170000009A
:10045000146408001700000018640800170000006A
:1004600024640800170000002C6408001700000036
:1004700030640800170000003C640800170000000A
:1004800044640800170000004864080017000000DA
:1004900054640800170000005C64080017000000A6
:1004A00060640800170000006C640800170000007A
:1004B000746408001700000078640800170000004A
:1004C00084640800170000008C6408001700000016
:1004D00090640800170000009C64080017000000EA
:1004E000A464080017000000A864080017000000BA
:1004F000BC64080017000000C0640800170000007A
:10050000CC64080017000000D46408001700000045
:10051000D864080017000000EC6408001700000011
:10052000F0640800170000000465080017000000D0
:100530000865080017000000146508001700000097
:100540001C65080017000000206508001700000067
:100550003465080017000000386508001700000027
:100560004C650800170000005065080017000000E7
:1005700064650800170000006865080017000000A7
:1005800074650800170000007C6508001700000073
:1005900080650800170000008C6508001700000047
:1005A0009465080017000000986508001700000017
:1005B000AC65080017000000B065080017000000D7
:1005C000BC65080017000000C465080017000000A3
:1005D000C865080017000000D46508001700000077
:1005E000DC65080017000000E06508001700000047
:1005F000F465080017000000F86508001700000007
:1006000004660800170000000C66080017000000D0
:1006100010660800170000001C66080017000000A4
:100620002466080017000000286608001700000074
:1006300034660800170000003C6608001700000040
:1006400040660800170000004C6608001700000014
:1006500054660800170000005866080017000000E4
:1006600064660800170000006C66080017000000B0
:1006700070660800170000007C6608001700000084
:100680008466080017000000886608001700000054
:1006900094660800170000009C6608001700000020
:1006A000A066080017000000AC66080017000000F4
:1006B000B466080017000000B866080017000000C4
:1006C000C466080017000000CC6608001700000090
:1006D000D066080017000000DC6608001700000064
:1006E000E466080017000000E86608001700000034
:1006F000F466080017000000FC6608001700000000
:1007000000670800170000000C67080017000000D1
:1007100014670800170000001867080017000000A1
:1007200024670800170000002C670800170000006D
:100730003067080017000000446708001700000039
:1007400048670800170000005C67080017000000F9
:1007500060670800170000007467080017000000B9
:1007600078670800170000008C6708001700000079
:1007700090670800170000009C6708001700000041
:10078000A467080017000000A86708001700000011
:10079000B467080017000000BC67080017000000DD
:1007A000C067080017000000CC67080017000000B1
:1007B000D467080017000000D86708001700000081
:1007C000E467080017000000EC670800170000004D
:1007D000F067080017000000FC6708001700000021
:1007E00004680800170000000868080017000000EF
:1007F00014680800170000001C68080017000000BB
:1008000020680800170000002C680800170000008E
:10081000346808001700000038680800170000005E
:1008200044680800170000004C680800170000002A
:1008300050680800170000005C68080017000000FE
:1008400064680800170000006868080017000000CE
:1008500074680800170000007C680800170000009A
:1008600080680800170000008C680800170000006E
:10087000946808001700000098680800170000003E
:10088000A468080017000000AC680800170000000A
:10089000B068080017000000BC68080017000000DE
:1008A000C468080017000000C868080017000000AE
:1008B000D468080017000000DC680800170000007A
:1008C000E068080017000000EC680800170000004E
:1008D000F468080017000000F8680800170000001E
:1008E00004690800170000000C69080017000000E8
:1008F00010690800170000002469080017000000B4
:10090000286908001700000034690800170000007B
:100910003C6908001700000040690800170000004B
:100920004C69080017000000546908001700000017
:1009300058690800170000006469080017000000EB
:100940006C690800170000007069080017000000BB
:100950007C69080017000000846908001700000087
:10096000886908001700000094690800170000005B
:100970009C69080017000000A0690800170000002B
:10098000AC69080017000000B469080017000000F7
:10099000B869080017000000C469080017000000CB
:1009A000CC69080017000000D0690800170000009B
:1009B000DC69080017000000E46908001700000067
:1009C000E869080017000000F4690800170000003B
:1009D000FC69080017000000006A0800170000000A
:1009E0000C6A080017000000146A080017000000D5
:1009F000186A080017000000246A080017000000A9
:100A00002C6A080017000000306A08001700000078
:100A1000446A080017000000486A08001700000038
:100A20005C6A080017000000606A080017000000F8
:100A3000746A080017000000786A080017000000B8
:100A4000846A0800170000008C6A08001700000084
:100A5000906A0800170000009C6A08001700000058
:100A6000A46A080017000000A86A08001700000028
:100A7000BC6A080017000000C06A080017000000E8
:100A8000D46A080017000000D86A080017000000A8
:100A9000E46A080017000000EC6A08001700000074
:100AA000F06A080017000000FC6A08001700000048
:100AB000046B080017000000086B08001700000016
:100AC000146B080017000000346B080017000000CA
:100AD000386B080017000000446B08001700000086
:100AE0004C6B080017000000506B08001700000056
:100AF0005C6B080017000000646B08001700000022
:100B0000686B080017000000746B080017000000F5
:100B10007C6B080017000000806B080017000000C5
:100B20008C6B080017000000946B08001700000091
:100B3000986B080017000000A46B08001700000065
:100B4000AC6B080017000000B06B08001700000035
:100B5000BC6B080017000000C46B08001700000001
:100B6000C86B080017000000DC6B080017000000CD
:100B7000E06B080017000000F46B0800170000008D
:100B8000F86B0800170000000C6C0800170000004C
:100B9000106C0800170000001C6C08001700000013
:100BA000246C080017000000286C080017000000E3
:100BB000346C0800170000003C6C080017000000AF
:100BC000406C080017000000546C0800170000007B
:100BD000586C080017000000646C08001700000043
:100BE0006C6C080017000000706C08001700000013
:100BF0007C6C080017000000846C080017000000DF
:100C0000886C080017000000946C080017000000B2
:100C1000B46C080017000000B86C08001700000052
:100C2000C46C080017000000CC6C0800170000001E
:100C3000D06C080017000000DC6C080017000000F2
:100C4000E46C080017000000E86C080017000000C2
:100C5000FC6C080017000000006D08001700000081
:100C6000146D080017000000186D08001700000040
:100C70002C6D080017000000306D08001700000000
:100C80003C6D080017000000446D080017000000CC
:100C9000486D080017000000546D080017000000A0
:100CA0005C6D080017000000606D08001700000070
:100CB0006C6D080017000000746D0800170000003C
:100CC000786D080017000000846D08001700000010
:100CD0008C6D080017000000906D080017000000E0
:100CE0009C6D080017000000A46D080017000000AC
:100CF000A86D080017000000B46D08001700000080
:100D0000BC6D080017000000C06D0800170000004F
:100D1000CC6D080017000000D46D0800170000001B
:100D2000D86D080017000000E46D080017000000EF
:100D3000EC6D080017000000F06D080017000000BF
:100D4000FC6D080017000000046E0800170000008A
:100D5000086E080017000000146E0800170000005D
:100D60001C6E080017000000206E0800170000002D
:100D70002C6E080017000000346E080017000000F9
:100D8000386E080017000000446E080017000000CD
:100D90004C6E080017000000506E0800170000009D
:100DA0005C6E080017000000646E08001700000069
:100DB000686E080017000000746E0800170000003D
:100DC0007C6E080017000000806E0800170000000D
:100DD0008C6E080017000000946E080017000000D9
:100DE000986E080017000000A46E080017000000AD
:100DF000AC6E080017000000B06E0800170000007D
:100E0000BC6E080017000000C46E08001700000048
:100E1000C86E080017000000D46E0800170000001C
:100E2000DC6E080017000000E06E080017000000EC
:100E3000EC6E080017000000F46E080017000000B8
:100E4000F86E080017000000046F0800170000008B
:100E50000C6F080017000000106F0800170000005A
:100E60001C6F080017000000246F08001700000026
:100E7000286F080017000000346F080017000000FA
:100E80003C6F080017000000406F080017000000CA
:100E90004C6F080017000000546F08001700000096
:100EA000586F080017000000646F0800170000006A
:100EB0006C6F080017000000706F0800170000003A
:100EC0007C6F080017000000846F08001700000006
:100ED000886F080017000000946F080017000000DA
:100EE0009C6F080017000000A06F080017000000AA
:100EF000AC6F080017000000B46F08001700000076
:100F0000B86F080017000000C46F08001700000049
:100F1000CC6F080017000000D06F08001700000019
:100F2000DC6F080017000000E46F080017000000E5
:100F3000E86F080017000000F46F080017000000B9
:100F4000FC6F080017000000007008001700000088
:100F50000C70080017000000147008001700000053
:100F60001870080017000000247008001700000027
:100F70002C700800170000003070080017000000F7
:100F80003C700800170000004470080017000000C3
:100F90004870080017000000547008001700000097
:100FA0005C70080017000000607008001700000067
:100FB0006C70080017000000747008001700000033
:100FC0007870080017000000847008001700000007
:100FD0008C700800170000009070080017000000D7
:100FE0009C70080017000000A470080017000000A3
:100FF000A870080017000000B47008001700000077
:10100000BC70080017000000C07008001700000046
:10101000CC70080017000000D47008001700000012
:10102000D870080017000000E470080017000000E6
:10103000EC70080017000000F070080017000000B6
:10104000FC70080017000000047108001700000081
:101050000871080017000000147108001700000054
:101060001C71080017000000207108001700000024
:1010700034710800170000003871080017000000E4
:1010800044710800170000004C71080017000000B0
:1010900050710800170000005C7108001700000084
:1010A0006471080017000000687108001700000054
:1010B00074710800170000007C7108001700000020
:1010C00080710800170000008C71080017000000F4
:1010D00094710800170000009871080017000000C4
:1010E000A471080017000000AC7108001700000090
:1010F000B071080017000000BC7108001700000064
:10110000C471080017000000C87108001700000033
:10111000D471080017000000DC71080017000000FF
:10112000E071080017000000EC71080017000000D3
:10113000F471080017000000F871080017000000A3
:1011400004720800170000000C720800170000006D
:1011500010720800170000001C7208001700000041
:101160002472080017000000287208001700000011
:1011700034720800170000003C72080017000000DD
:1011800040720800170000004C72080017000000B1
:101190005472080017000000587208001700000081
:1011A00064720800170000006C720800170000004D
:1011B00070720800170000007C7208001700000021
:1011C00084720800170000008872080017000000F1
:1011D00094720800170000009C72080017000000BD
:1011E000A072080017000000AC7208001700000091
:1011F000B472080017000000B87208001700000061
:10120000C472080017000000CC720800170000002C
:10121000D072080017000000DC7208001700000000
:10122000E472080017000000E872080017000000D0
:10123000F472080017000000FC720800170000009C
:1012400000730800170000000C730800170000006E
:10125000147308001700000018730800170000003E
:1012600024730800170000002C730800170000000A
:1012700030730800170000003C73080017000000DE
:1012800044730800170000004873080017000000AE
:1012900054730800170000005C730800170000007A
:1012A00060730800170000006C730800170000004E
:1012B000747308001700000078730800170000001E
:1012C00084730800170000008C73080017000000EA
:1012D00090730800170000009C73080017000000BE
:1012E000A473080017000000A8730800170000008E
:1012F000B473080017000000BC730800170000005A
:10130000C073080017000000CC730800170000002D
:10131000D473080017000000D873080017000000FD
:10132000E473080017000000EC73080017000000C9
:10133000F073080017000000FC730800170000009D
:10134000047408001700000008740800170000006B
:1013500014740800170000001C7408001700000037
:1013600020740800170000002C740800170000000B
:1013700034740800170000003874080017000000DB
:1013800044740800170000004C74080017000000A7
:1013900050740800170000005C740800170000007B
:1013A000647408001700000068740800170000004B
:1013B00074740800170000007C7408001700000017
:1013C00080740800170000008C74080017000000EB
:1013D00094740800170000009874080017000000BB
:1013E000A474080017000000AC7408001700000087
:1013F000B074080017000000BC740800170000005B
:10140000C474080017000000C8740800170000002A
:10141000D474080017000000DC74080017000000F6
:10142000E074080017000000EC74080017000000CA
:10143000F474080017000000F8740800170000009A
:1014400004750800170000000C7508001700000064
:1014500010750800170000001C7508001700000038
:101460002475080017000000287508001700000008
:1014700034750800170000003C75080017000000D4
:1014800040750800170000004C75080017000000A8
:101490005475080017000000587508001700000078
:1014A00064750800170000006C7508001700000044
:1014B00070750800170000007C7508001700000018
:1014C00084750800170000008875080017000000E8
:1014D00094750800170000009C75080017000000B4
:1014E000A075080017000000AC7508001700000088
:1014F000B475080017000000B87508001700000058
:10150000C475080017000000CC7508001700000023
:10151000D075080017000000DC75080017000000F7
:10152000E475080017000000E875080017000000C7
:10153000F475080017000000FC7508001700000093
:1015400000760800170000000C7608001700000065
:101550001476080017000000187608001700000035
:1015600024760800170000002C7608001700000001
:1015700030760800170000003C76080017000000D5
:1015800044760800170000004876080017000000A5
:1015900054760800170000005C7608001700000071
:1015A00060760800170000006C7608001700000045
:1015B0007476080017000000787608001700000015
:1015C00084760800170000008C76080017000000E1
:1015D00090760800170000009C76080017000000B5
:1015E000A476080017000000A87608001700000085
:1015F000B476080017000000BC7608001700000051
:10160000C076080017000000CC7608001700000024
:10161000D476080017000000D876080017000000F4
:10162000E476080017000000EC76080017000000C0
:10163000F076080017000000FC7608001700000094
:101640000477080017000000087708001700000062
:1016500014770800170000001C770800170000002E
:1016600020770800170000002C7708001700000002
:1016700034770800170000003877080017000000D2
:1016800044770800170000004C770800170000009E
:1016900050770800170000005C7708001700000072
:1016A0006477080017000000687708001700000042
:1016B00074770800170000007C770800170000000E
:1016C00080770800170000008C77080017000000E2
:1016D00094770800170000009877080017000000B2
:1016E000A477080017000000AC770800170000007E
:1016F000B077080017000000BC7708001700000052
:10170000C477080017000000C87708001700000021
:10171000D477080017000000DC77080017000000ED
:10172000E077080017000000EC77080017000000C1
:10173000F477080017000000F87708001700000091
:1017400004780800170000000C780800170000005B
:1017500010780800170000001C780800170000002F
:1017600024780800170000002878080017000000FF
:1017700034780800170000003C78080017000000CB
:1017800040780800170000004C780800170000009F
:10179000547808001700000058780800170000006F
:1017A00064780800170000006C780800170000003B
:1017B00070780800170000007C780800170000000F
:1017C00084780800170000008878080017000000DF
:1017D00094780800170000009C78080017000000AB
:1017E000A078080017000000AC780800170000007F
:1017F000B478080017000000B8780800170000004F
:10180000C478080017000000CC780800170000001A
:10181000D078080017000000DC78080017000000EE
:10182000E478080017000000E878080017000000BE
:10183000F478080017000000FC780800170000008A
:1018400000790800170000000C790800170000005C
:10185000147908001700000018790800170000002C
:1018600024790800170000002C79080017000000F8
:1018700030790800170000003C79080017000000CC
:10188000447908001700000048790800170000009C
:1018900054790800170000005C7908001700000068
:1018A00060790800170000006C790800170000003C
:1018B000747908001700000078790800170000000C
:1018C00084790800170000008C79080017000000D8
:1018D00090790800170000009C79080017000000AC
:1018E000A479080017000000A8790800170000007C
:1018F000B479080017000000BC7908001700000048
:10190000C079080017000000CC790800170000001B
:10191000D479080017000000D879080017000000EB
:10192000E479080017000000EC79080017000000B7
:10193000F079080017000000FC790800170000008B
:10194000047A080017000000087A08001700000059
:10195000147A0800170000001C7A08001700000025
:10196000207A0800170000002C7A080017000000F9
:10197000347A080017000000387A080017000000C9
:10198000447A0800170000004C7A08001700000095
:10199000507A0800170000005C7A08001700000069
:1019A000647A080017000000687A08001700000039
:1019B000747A0800170000007C7A08001700000005
:1019C000807A0800170000008C7A080017000000D9
:1019D000947A080017000000987A080017000000A9
:1019E000A47A080017000000AC7A08001700000075
:1019F000B07A080017000000BC7A08001700000049
:101A0000C47A080017000000C87A08001700000018
:101A1000D47A080017000000DC7A080017000000E4
:101A2000E07A080017000000EC7A080017000000B8
:101A3000F47A080017000000F87A08001700000088
:101A4000047B0800170000000C7B08001700000052
:101A5000107B0800170000001C7B08001700000026
:101A6000247B080017000000287B080017000000F6
:101A7000347B0800170000003C7B080017000000C2
:101A8000407B0800170000004C7B08001700000096
:101A9000547B080017000000587B08001700000066
:101AA000647B0800170000006C7B08001700000032
:101AB000707B0800170000007C7B08001700000006
:101AC000847B080017000000887B080017000000D6
:101AD000947B0800170000009C7B080017000000A2
:101AE000A07B080017000000AC7B08001700000076
:101AF000B47B080017000000B87B08001700000046
:101B0000C47B080017000000CC7B08001700000011
:101B1000D07B080017000000DC7B080017000000E5
:101B2000E47B080017000000E87B080017000000B5
:101B3000F47B080017000000FC7B08001700000081
:101B4000007C0800170000000C7C08001700000053
:101B5000147C080017000000187C08001700000023
:101B6000247C0800170000002C7C080017000000EF
:101B7000307C0800170000003C7C080017000000C3
:101B8000447C080017000000487C08001700000093
:101B9000547C0800170000005C7C0800170000005F
:101BA000607C0800170000006C7C08001700000033
:101BB000747C080017000000787C08001700000003
:101BC000847C0800170000008C7C080017000000CF
:101BD000907C0800170000009C7C080017000000A3
:101BE000A47C080017000000A87C08001700000073
:101BF000B47C080017000000BC7C0800170000003F
:101C0000C07C080017000000CC7C08001700000012
:101C1000D47C080017000000D87C080017000000E2
:101C2000E47C080017000000EC7C080017000000AE
:101C3000F07C080017000000FC7C08001700000082
:101C4000047D080017000000087D08001700000050
:101C5000147D0800170000001C7D0800170000001C
:101C6000207D0800170000002C7D080017000000F0
:101C7000347D080017000000387D080017000000C0
:101C8000447D0800170000004C7D0800170000008C
:101C9000507D0800170000005C7D08001700000060
:101CA000647D080017000000687D08001700000030
:101CB000747D0800170000007C7D080017000000FC
:101CC000807D0800170000008C7D080017000000D0
:101CD000947D080017000000987D080017000000A0
:101CE000A47D080017000000AC7D0800170000006C
:101CF000B07D080017000000BC7D08001700000040
:101D0000C47D080017000000C87D0800170000000F
:101D1000D47D080017000000DC7D080017000000DB
:101D2000E07D080017000000EC7D080017000000AF
:101D3000F47D080017000000F87D0800170000007F
:101D4000047E0800170000000C7E08001700000049
:101D5000107E0800170000001C7E0800170000001D
:101D6000247E080017000000287E080017000000ED
:101D7000347E0800170000003C7E080017000000B9
:101D8000407E0800170000004C7E0800170000008D
:101D9000547E080017000000587E0800170000005D
:101DA000647E0800170000006C7E08001700000029
:101DB000707E0800170000007C7E080017000000FD
:101DC000847E080017000000887E080017000000CD
:101DD000947E0800170000009C7E08001700000099
:101DE000A07E080017000000AC7E0800170000006D
:101DF000B47E080017000000B87E0800170000003D
:101E0000C47E080017000000CC7E08001700000008
:101E1000D07E080017000000DC7E080017000000DC
:101E2000E47E080017000000E87E080017000000AC
:101E3000F47E080017000000FC7E08001700000078
:101E4000007F0800170000000C7F0800170000004A
:101E5000147F080017000000187F0800170000001A
:101E6000247F0800170000002C7F080017000000E6
:101E7000307F0800170000003C7F080017000000BA
:101E8000447F080017000000487F0800170000008A
:101E9000547F0800170000005C7F08001700000056
:101EA000607F0800170000006C7F0800170000002A
:101EB000747F080017000000787F080017000000FA
:101EC000847F0800170000008C7F080017000000C6
:101ED000907F0800170000009C7F0800170000009A
:101EE000A47F080017000000A87F0800170000006A
:101EF000B47F080017000000BC7F08001700000036
:101F0000C07F080017000000CC7F08001700000009
:101F1000D47F080017000000D87F080017000000D9
:101F2000E47F080017000000EC7F080017000000A5
:101F3000F07F080017000000FC7F08001700000079
:101F40000480080017000000088008001700000047
:101F500014800800170000001C8008001700000013
:101F600020800800170000002C80080017000000E7
:101F700034800800170000003880080017000000B7
:101F800044800800170000004C8008001700000083
:101F900050800800170000005C8008001700000057
:101FA0006480080017000000688008001700000027
:101FB00074800800170000007C80080017000000F3
:101FC00080800800170000008C80080017000000C7
:101FD0009480080017000000988008001700000097
:101FE000A480080017000000AC8008001700000063
:101FF000B080080017000000BC8008001700000037
:10200000C480080017000000C88008001700000006
:10201000D480080017000000DC80080017000000D2
:10202000E080080017000000EC80080017000000A6
:10203000F480080017000000F88008001700000076
:1020400004810800170000000C8108001700000040
:1020500010810800170000001C8108001700000014
:1020600024810800170000002881080017000000E4
:1020700034810800170000003C81080017000000B0
:1020800040810800170000004C8108001700000084
:102090005481080017000000588108001700000054
:1020A00064810800170000006C8108001700000020
:1020B00070810800170000007C81080017000000F4
:1020C00084810800170000008881080017000000C4
:1020D00094810800170000009C8108001700000090
:1020E000A081080017000000AC8108001700000064
:1020F000B481080017000000B88108001700000034
:10210000C481080017000000CC81080017000000FF
:10211000D081080017000000DC81080017000000D3
:10212000E481080017000000E881080017000000A3
:10213000F481080017000000FC810800170000006F
:1021400000820800170000000C8208001700000041
:102150001482080017000000188208001700000011
:1021600024820800170000002C82080017000000DD
:1021700030820800170000003C82080017000000B1
:102180004482080017000000488208001700000081
:102190005482080017000000748208001700000035
:1021A00078820800170000008482080017000000F1
:1021B0008C820800170000009082080017000000C1
:1021C0009C82080017000000A4820800170000008D
:1021D000A882080017000000B48208001700000061
:1021E000BC82080017000000C08208001700000031
:1021F000CC82080017000000D482080017000000FD
:10220000D882080017000000E482080017000000D0
:10221000EC82080017000000F082080017000000A0
:10222000FC8208001700000004830800170000006B
:10223000088308001700000014830800170000003E
:102240001C8308001700000020830800170000000E
:102250002C830800170000003483080017000000DA
:1022600038830800170000004483080017000000AE
:102270004C8308001700000050830800170000007E
:102280005C8308001700000064830800170000004A
:10229000688308001700000074830800170000001E
:1022A0007C830800170000008083080017000000EE
:1022B0008C830800170000009483080017000000BA
:1022C0009883080017000000A4830800170000008E
:1022D000AC83080017000000B0830800170000005E
:1022E000BC83080017000000C4830800170000002A
:1022F000C883080017000000D483080017000000FE
:10230000DC83080017000000E083080017000000CD
:10231000EC83080017000000F48308001700000099
:10232000F88308001700000004840800170000006C
:102330000C8408001700000010840800170000003B
:102340001C84080017000000248408001700000007
:1023500028840800170000003484080017000000DB
:102360003C840800170000004084080017000000AB
:102370004C84080017000000548408001700000077
:10238000588408001700000064840800170000004B
:102390006C8408001700000070840800170000001B
:1023A0007C840800170000008484080017000000E7
:1023B00088840800170000009484080017000000BB
:1023C0009C84080017000000A0840800170000008B
:1023D000AC84080017000000B48408001700000057
:1023E000B884080017000000C4840800170000002B
:1023F000CC84080017000000D084080017000000FB
:10240000DC84080017000000E484080017000000C6
:10241000E884080017000000F4840800170000009A
:10242000FC84080017000000008508001700000069
:102430000C85080017000000148508001700000034
:102440001885080017000000248508001700000008
:102450002C850800170000003085080017000000D8
:102460003C850800170000004485080017000000A4
:102470004885080017000000548508001700000078
:102480005C85080017000000608508001700000048
:102490006C85080017000000748508001700000014
:1024A00078850800170000008485080017000000E8
:1024B0008C850800170000009085080017000000B8
:1024C0009C85080017000000A48508001700000084
:1024D000A885080017000000B48508001700000058
:1024E000BC85080017000000C08508001700000028
:1024F000CC85080017000000D485080017000000F4
:10250000D885080017000000E485080017000000C7
:10251000EC85080017000000F08508001700000097
:10252000FC85080017000000048608001700000062
:102530000886080017000000148608001700000035
:102540001C86080017000000208608001700000005
:102550002C860800170000003486080017000000D1
:1025600038860800170000004486080017000000A5
:102570004C86080017000000508608001700000075
:102580005C86080017000000648608001700000041
:102590006886080017000000748608001700000015
:1025A0007C860800170000008086080017000000E5
:1025B0008C860800170000009486080017000000B1
:1025C0009886080017000000A48608001700000085
:1025D000AC86080017000000B08608001700000055
:1025E000BC86080017000000C48608001700000021
:1025F000C886080017000000D486080017000000F5
:10260000DC86080017000000E086080017000000C4
:10261000EC86080017000000F48608001700000090
:10262000F886080017000000048708001700000063
:102630000C87080017000000108708001700000032
:102640001C870800170000002487080017000000FE
:1026500028870800170000003487080017000000D2
:102660003C870800170000004087080017000000A2
:102670004C8708001700000054870800170000006E
:102680005887080017000000648708001700000042
:102690006C87080017000000708708001700000012
:1026A0007C870800170000008487080017000000DE
:1026B00088870800170000009487080017000000B2
:1026C0009C87080017000000A08708001700000082
:1026D000AC87080017000000B4870800170000004E
:1026E000B887080017000000C48708001700000022
:1026F000CC87080017000000D087080017000000F2
:10270000DC87080017000000E487080017000000BD
:10271000E887080017000000F48708001700000091
:10272000FC87080017000000008808001700000060
:102730000C8808001700000014880800170000002B
:1027400018880800170000002488080017000000FF
:102750002C880800170000003088080017000000CF
:102760003C8808001700000044880800170000009B
:10277000488808001700000054880800170000006F
:102780005C8808001700000060880800170000003F
:102790006C8808001700000074880800170000000B
:1027A00078880800170000008488080017000000DF
:1027B0008C880800170000009088080017000000AF
:1027C0009C88080017000000A4880800170000007B
:1027D000A888080017000000B4880800170000004F
:1027E000BC88080017000000C0880800170000001F
:1027F000CC88080017000000D488080017000000EB
:10280000D888080017000000E488080017000000BE
:10281000EC88080017000000F0880800170000008E
:10282000FC88080017000000048908001700000059
:10283000088908001700000014890800170000002C
:102840001C890800170000002089080017000000FC
:102850002C890800170000003489080017000000C8
:10286000388908001700000044890800170000009C
:102870004C8908001700000050890800170000006C
:102880005C89080017000000648908001700000038
:10289000688908001700000074890800170000000C
:1028A0007C890800170000008089080017000000DC
:1028B0008C890800170000009489080017000000A8
:1028C0009889080017000000A4890800170000007C
:1028D000AC89080017000000B0890800170000004C
:1028E000BC89080017000000C48908001700000018
:1028F000C889080017000000D489080017000000EC
:10290000DC89080017000000E089080017000000BB
:10291000EC89080017000000F48908001700000087
:10292000F889080017000000048A0800170000005A
:102930000C8A080017000000108A08001700000029
:102940001C8A080017000000248A080017000000F5
:10295000288A080017000000348A080017000000C9
:102960003C8A080017000000408A08001700000099
:102970004C8A080017000000548A08001700000065
:10298000588A080017000000648A08001700000039
:102990006C8A080017000000708A08001700000009
:1029A0007C8A080017000000848A080017000000D5
:1029B000888A080017000000948A080017000000A9
:1029C0009C8A080017000000A08A08001700000079
:1029D000AC8A080017000000B48A08001700000045
:1029E000B88A080017000000C48A08001700000019
:1029F000CC8A080017000000D08A080017000000E9
:102A0000DC8A080017000000E48A080017000000B4
:102A1000E88A080017000000F48A08001700000088
:102A2000FC8A080017000000008B08001700000057
:102A30000C8B080017000000148B08001700000022
:102A4000188B080017000000248B080017000000F6
:102A50002C8B080017000000308B080017000000C6
:102A60003C8B080017000000448B08001700000092
:102A7000488B080017000000548B08001700000066
:102A80005C8B080017000000608B08001700000036
:102A90006C8B080017000000748B08001700000002
:102AA000788B080017000000848B080017000000D6
:102AB0008C8B080017000000908B080017000000A6
:102AC0009C8B080017000000A48B08001700000072
:102AD000A88B080017000000B48B08001700000046
:102AE000BC8B080017000000C08B08001700000016
:102AF000CC8B080017000000D48B080017000000E2
:102B0000D88B080017000000E48B080017000000B5
:102B1000EC8B080017000000F08B08001700000085
:102B2000FC8B080017000000048C08001700000050
:102B3000088C080017000000148C08001700000023
:102B40001C8C080017000000208C080017000000F3
:102B50002C8C080017000000348C080017000000BF
:102B6000388C080017000000448C08001700000093
:102B70004C8C080017000000508C08001700000063
:102B80005C8C080017000000648C0800170000002F
:102B9000688C080017000000748C08001700000003
:102BA0007C8C080017000000808C080017000000D3
:102BB0008C8C080017000000948C0800170000009F
:102BC000988C080017000000A48C08001700000073
:102BD000AC8C080017000000B08C08001700000043
:102BE000BC8C080017000000C48C0800170000000F
:102BF000C88C080017000000D48C080017000000E3
:102C0000DC8C080017000000E08C080017000000B2
:102C1000EC8C080017000000F48C0800170000007E
:102C2000F88C080017000000048D08001700000051
:102C30000C8D080017000000108D08001700000020
:102C40001C8D080017000000248D080017000000EC
:102C5000288D080017000000348D080017000000C0
:102C60003C8D080017000000408D08001700000090
:102C70004C8D080017000000548D0800170000005C
:102C8000588D080017000000648D08001700000030
:102C90006C8D080017000000708D08001700000000
:102CA0007C8D080017000000848D080017000000CC
:102CB000888D080017000000948D080017000000A0
:102CC0009C8D080017000000A08D08001700000070
:102CD000AC8D080017000000B48D0800170000003C
:102CE000B88D080017000000C48D08001700000010
:102CF000CC8D080017000000D08D080017000000E0
:102D0000DC8D080017000000E48D080017000000AB
:102D1000E88D080017000000F48D0800170000007F
:102D2000FC8D080017000000008E0800170000004E
:102D30000C8E080017000000148E08001700000019
:102D4000188E080017000000248E080017000000ED
:102D50002C8E080017000000308E080017000000BD
:102D60003C8E080017000000448E08001700000089
:102D7000488E080017000000548E0800170000005D
:102D80005C8E080017000000608E0800170000002D
:102D90006C8E080017000000748E080017000000F9
:102DA000788E080017000000848E080017000000CD
:102DB0008C8E080017000000908E0800170000009D
:102DC0009C8E080017000000A48E08001700000069
:102DD000A88E080017000000B48E0800170000003D
:102DE000BC8E080017000000C08E0800170000000D
:102DF000CC8E080017000000D48E080017000000D9
:102E0000D88E080017000000E48E080017000000AC
:102E1000EC8E080017000000F08E0800170000007C
:102E2000FC8E080017000000048F08001700000047
:102E3000088F080017000000148F0800170000001A
:102E40001C8F080017000000208F080017000000EA
:102E50002C8F080017000000348F080017000000B6
:102E6000388F080017000000448F0800170000008A
:102E70004C8F080017000000508F0800170000005A
:102E80005C8F080017000000648F08001700000026
:102E9000688F080017000000748F080017000000FA
:102EA0007C8F080017000000808F080017000000CA
:102EB0008C8F080017000000948F08001700000096
:102EC000988F080017000000A48F0800170000006A
:102ED000AC8F080017000000B08F0800170000003A
:102EE000BC8F080017000000C48F08001700000006
:102EF000C88F080017000000D48F080017000000DA
:102F0000DC8F080017000000E08F080017000000A9
:102F1000EC8F080017000000F48F08001700000075
:102F2000F88F080017000000049008001700000048
:102F30000C90080017000000109008001700000017
:102F40001C900800170000002490080017000000E3
:102F500028900800170000003490080017000000B7
:102F60003C90080017000000409008001700000087
:102F70004C90080017000000549008001700000053
:102F80005890080017000000649008001700000027
:102F90006C900800170000007090080017000000F7
:102FA0007C900800170000008490080017000000C3
:102FB0008890080017000000949008001700000097
:102FC0009C90080017000000A09008001700000067
:102FD000AC90080017000000B49008001700000033
:102FE000B890080017000000C49008001700000007
:102FF000CC90080017000000D090080017000000D7
:10300000DC90080017000000E490080017000000A2
:10301000E890080017000000F49008001700000076
:10302000FC90080017000000009108001700000045
:103030000C91080017000000149108001700000010
:1030400018910800170000002491080017000000E4
:103050002C910800170000003091080017000000B4
:103060003C91080017000000449108001700000080
:103070004891080017000000549108001700000054
:103080005C91080017000000609108001700000024
:103090006C910800170000008C91080017000000D8
:1030A00090910800170000009C9108001700000094
:1030B000A491080017000000A89108001700000064
:1030C000B491080017000000BC9108001700000030
:1030D000C091080017000000CC9108001700000004
:1030E000D491080017000000D891080017000000D4
:1030F000E491080017000000EC91080017000000A0
:10310000F091080017000000FC9108001700000073
:103110000492080017000000089208001700000041
:1031200014920800170000001C920800170000000D
:1031300020920800170000002C92080017000000E1
:1031400034920800170000003892080017000000B1
:1031500044920800170000004C920800170000007D
:1031600050920800170000005C9208001700000051
:103170006492080017000000689208001700000021
:1031800074920800170000007C92080017000000ED
:1031900080920800170000008C92080017000000C1
:1031A0009492080017000000989208001700000091
:1031B000A492080017000000AC920800170000005D
:1031C000B092080017000000BC9208001700000031
:1031D000C492080017000000C89208001700000001
:1031E000D492080017000000DC92080017000000CD
:1031F000E092080017000000EC92080017000000A1
:10320000F492080017000000F89208001700000070
:1032100004930800170000000C930800170000003A
:1032200010930800170000001C930800170000000E
:1032300024930800170000002893080017000000DE
:1032400034930800170000003C93080017000000AA
:1032500040930800170000004C930800170000007E
:10326000549308001700000058930800170000004E
:1032700064930800170000006C930800170000001A
:1032800070930800170000007C93080017000000EE
:1032900084930800170000008893080017000000BE
:1032A00094930800170000009C930800170000008A
:1032B000A093080017000000AC930800170000005E
:1032C000B493080017000000B8930800170000002E
:1032D000C493080017000000CC93080017000000FA
:1032E000D093080017000000DC93080017000000CE
:1032F000E493080017000000E8930800170000009E
:10330000F493080017000000FC9308001700000069
:1033100000940800170000000C940800170000003B
:10332000149408001700000018940800170000000B
:1033300024940800170000002C94080017000000D7
:1033400030940800170000003C94080017000000AB
:10335000449408001700000048940800170000007B
:1033600054940800170000005C9408001700000047
:1033700060940800170000006C940800170000001B
:1033800074940800170000007894080017000000EB
:1033900084940800170000008C94080017000000B7
:1033A00090940800170000009C940800170000008B
:1033B000A494080017000000A8940800170000005B
:1033C000B494080017000000BC9408001700000027
:1033D000C094080017000000CC94080017000000FB
:1033E000D494080017000000D894080017000000CB
:1033F000E494080017000000EC9408001700000097
:10340000F094080017000000FC940800170000006A
:103410000495080017000000089508001700000038
:1034200014950800170000001C9508001700000004
:1034300020950800170000002C95080017000000D8
:1034400034950800170000003895080017000000A8
:1034500044950800170000004C9508001700000074
:1034600050950800170000005C9508001700000048
:103470006495080017000000689508001700000018
:1034800074950800170000007C95080017000000E4
:1034900080950800170000008C95080017000000B8
:1034A0009495080017000000989508001700000088
:1034B000A495080017000000AC9508001700000054
:1034C000B095080017000000BC9508001700000028
:1034D000C495080017000000C895080017000000F8
:1034E000D495080017000000DC95080017000000C4
:1034F000E095080017000000EC9508001700000098
:10350000F495080017000000F89508001700000067
:1035100004960800170000000C9608001700000031
:1035200010960800170000001C9608001700000005
:1035300024960800170000002896080017000000D5
:1035400034960800170000003C96080017000000A1
:1035500040960800170000004C9608001700000075
:103560005496080017000000589608001700000045
:1035700064960800170000006C9608001700000011
:1035800070960800170000007C96080017000000E5
:1035900084960800170000008896080017000000B5
:1035A00094960800170000009C9608001700000081
:1035B000A096080017000000AC9608001700000055
:1035C000B496080017000000B89608001700000025
:1035D000C496080017000000CC96080017000000F1
:1035E000D096080017000000DC96080017000000C5
:1035F000E496080017000000E89608001700000095
:10360000F496080017000000FC9608001700000060
:1036100000970800170000000C9708001700000032
:103620001497080017000000189708001700000002
:1036300024970800170000002C97080017000000CE
:1036400030970800170000003C97080017000000A2
:103650004497080017000000489708001700000072
:1036600054970800170000005C970800170000003E
:1036700060970800170000006C9708001700000012
:1036800074970800170000007897080017000000E2
:1036900084970800170000008C97080017000000AE
:1036A00090970800170000009C9708001700000082
:1036B000A497080017000000A89708001700000052
:1036C000B497080017000000BC970800170000001E
:1036D000C097080017000000CC97080017000000F2
:1036E000D497080017000000D897080017000000C2
:1036F000E497080017000000EC970800170000008E
:10370000F097080017000000FC9708001700000061
:10371000049808001700000008980800170000002F
:1037200014980800170000001C98080017000000FB
:1037300020980800170000002C98080017000000CF
:10374000349808001700000038980800170000009F
:1037500044980800170000004C980800170000006B
:1037600050980800170000005C980800170000003F
:10377000649808001700000068980800170000000F
:1037800074980800170000007C98080017000000DB
:1037900080980800170000008C98080017000000AF
:1037A000949808001700000098980800170000007F
:1037B000A498080017000000AC980800170000004B
:1037C000B098080017000000BC980800170000001F
:1037D000C498080017000000C898080017000000EF
:1037E000D498080017000000DC98080017000000BB
:1037F000E098080017000000EC980800170000008F
:10380000F498080017000000F8980800170000005E
:1038100004990800170000000C9908001700000028
:1038200010990800170000001C99080017000000FC
:1038300024990800170000002899080017000000CC
:1038400034990800170000003C9908001700000098
:1038500040990800170000004C990800170000006C
:10386000549908001700000058990800170000003C
:1038700064990800170000006C9908001700000008
:1038800070990800170000007C99080017000000DC
:1038900084990800170000008899080017000000AC
:1038A00094990800170000009C9908001700000078
:1038B000A099080017000000AC990800170000004C
:1038C000B499080017000000B8990800170000001C
:1038D000C499080017000000CC99080017000000E8
:1038E000D099080017000000DC99080017000000BC
:1038F000E499080017000000E8990800170000008C
:10390000F499080017000000FC9908001700000057
:10391000009A0800170000000C9A08001700000029
:10392000149A080017000000189A080017000000F9
:10393000249A0800170000002C9A080017000000C5
:10394000309A0800170000003C9A08001700000099
:10395000449A080017000000489A08001700000069
:10396000549A0800170000005C9A08001700000035
:10397000609A0800170000006C9A08001700000009
:10398000749A080017000000789A080017000000D9
:10399000849A0800170000008C9A080017000000A5
:1039A000909A0800170000009C9A08001700000079
:1039B000A49A080017000000A89A08001700000049
:1039C000B49A080017000000BC9A08001700000015
:1039D000C09A080017000000CC9A080017000000E9
:1039E000D49A080017000000D89A080017000000B9
:1039F000E49A080017000000EC9A08001700000085
:103A0000F09A080017000000FC9A08001700000058
:103A1000049B080017000000089B08001700000026
:103A2000149B0800170000001C9B080017000000F2
:103A3000209B0800170000002C9B080017000000C6
:103A4000349B080017000000389B08001700000096
:103A5000449B0800170000004C9B08001700000062
:103A6000509B0800170000005C9B08001700000036
:103A7000649B080017000000689B08001700000006
:103A8000749B0800170000007C9B080017000000D2
:103A9000809B0800170000008C9B080017000000A6
:103AA000949B080017000000989B08001700000076
:103AB000A49B080017000000AC9B08001700000042
:103AC000B09B080017000000BC9B08001700000016
:103AD000C49B080017000000C89B080017000000E6
:103AE000D49B080017000000DC9B080017000000B2
:103AF000E09B080017000000EC9B08001700000086
:103B0000F49B080017000000F89B08001700000055
:103B1000049C0800170000000C9C0800170000001F
:103B2000109C0800170000001C9C080017000000F3
:103B3000249C080017000000289C080017000000C3
:103B4000349C0800170000003C9C0800170000008F
:103B5000409C0800170000004C9C08001700000063
:103B6000549C080017000000589C08001700000033
:103B7000649C0800170000006C9C080017000000FF
:103B8000709C0800170000007C9C080017000000D3
:103B9000849C080017000000889C080017000000A3
:103BA000949C0800170000009C9C0800170000006F
:103BB000A09C080017000000AC9C08001700000043
:103BC000B49C080017000000B89C08001700000013
:103BD000C49C080017000000CC9C080017000000DF
:103BE000D09C080017000000DC9C080017000000B3
:103BF000E49C080017000000E89C08001700000083
:103C0000F49C080017000000FC9C0800170000004E
:103C1000009D0800170000000C9D08001700000020
:103C2000149D080017000000189D080017000000F0
:103C3000249D0800170000002C9D080017000000BC
:103C4000309D0800170000003C9D08001700000090
:103C5000449D080017000000489D08001700000060
:103C6000549D0800170000005C9D0800170000002C
:103C7000609D0800170000006C9D08001700000000
:103C8000749D080017000000789D080017000000D0
:103C9000849D0800170000008C9D0800170000009C
:103CA000909D0800170000009C9D08001700000070
:103CB000A49D080017000000A89D08001700000040
:103CC000B49D080017000000BC9D0800170000000C
:103CD000C09D080017000000CC9D080017000000E0
:103CE000D49D080017000000D89D080017000000B0
:103CF000E49D080017000000EC9D0800170000007C
:103D0000F09D080017000000FC9D0800170000004F
:103D1000049E080017000000089E0800170000001D
:103D2000149E0800170000001C9E080017000000E9
:103D3000209E0800170000002C9E080017000000BD
:103D4000349E080017000000389E0800170000008D
:103D5000449E0800170000004C9E08001700000059
:103D6000509E0800170000005C9E0800170000002D
:103D7000649E080017000000689E080017000000FD
:103D8000749E0800170000007C9E080017000000C9
:103D9000809E080017000000949E08001700000095
:103DA000989E080017000000AC9E08001700000055
:103DB000B09E080017000000C49E08001700000015
:103DC000C89E080017000000DC9E080017000000D5
:103DD000E09E080017000000F49E08001700000095
:103DE000F89E0800170000000C9F08001700000054
:103DF000109F080017000000249F08001700000013
:103E0000289F0800170000003C9F080017000000D2
:103E1000409F080017000000549F08001700000092
:103E2000589F0800170000006C9F08001700000052
:103E3000709F0800170000007C9F0800170000001A
:103E4000849F080017000000889F080017000000EA
:103E5000949F0800170000009C9F080017000000B6
:103E6000A09F080017000000AC9F0800170000008A
:103E7000B49F080017000000B89F0800170000005A
:103E8000C49F080017000000CC9F08001700000026
:103E9000D09F080017000000DC9F080017000000FA
:103EA000E49F080017000000E89F080017000000CA
:103EB000F49F080017000000FC9F08001700000096
:103EC00000A00800170000000CA008001700000068
:103ED00014A008001700000018A008001700000038
:103EE00024A00800170000002CA008001700000004
:103EF00030A00800170000003CA0080017000000D8
:103F000044A008001700000048A0080017000000A7
:103F100054A00800170000005CA008001700000073
:103F200060A00800170000006CA008001700000047
:103F300074A008001700000078A008001700000017
:103F400084A00800170000008CA0080017000000E3
:103F500090A00800170000009CA0080017000000B7
:103F6000A4A0080017000000A8A008001700000087
:103F7000B4A0080017000000BCA008001700000053
:103F8000C0A0080017000000CCA008001700000027
:103F9000D4A0080017000000D8A0080017000000F7
:103FA000E4A0080017000000ECA0080017000000C3
:103FB000F0A0080017000000FCA008001700000097
:103FC00004A108001700000008A108001700000065
:103FD00014A10800170000001CA108001700000031
:103FE00020A10800170000002CA108001700000005
:103FF00034A108001700000038A1080017000000D5
:1040000044A10800170000004CA1080017000000A0
:1040100050A10800170000005CA108001700000074
:1040200064A108001700000068A108001700000044
:1040300074A10800170000007CA108001700000010
:1040400080A10800170000008CA1080017000000E4
:1040500094A108001700000098A1080017000000B4
:10406000A4A1080017000000ACA108001700000080
:10407000B0A1080017000000BCA108001700000054
:10408000C4A1080017000000C8A108001700000024
:10409000D4A1080017000000DCA1080017000000F0
:1040A000E0A1080017000000ECA1080017000000C4
:1040B000F4A1080017000000F8A108001700000094
:1040C00004A20800170000000CA20800170000005E
:1040D00010A20800170000001CA208001700000032
:1040E00024A208001700000028A208001700000002
:1040F00034A20800170000003CA2080017000000CE
:1041000040A20800170000004CA2080017000000A1
:1041100054A208001700000058A208001700000071
:1041200064A20800170000006CA20800170000003D
:1041300070A20800170000007CA208001700000011
:1041400084A208001700000088A2080017000000E1
:1041500094A20800170000009CA2080017000000AD
:10416000A0A2080017000000ACA208001700000081
:10417000B4A2080017000000B8A208001700000051
:10418000C4A2080017000000CCA20800170000001D
:10419000D0A2080017000000DCA2080017000000F1
:1041A000E4A2080017000000E8A2080017000000C1
:1041B000F4A2080017000000FCA20800170000008D
:1041C00000A30800170000000CA30800170000005F
:1041D00014A308001700000018A30800170000002F
:1041E00024A30800170000002CA3080017000000FB
:1041F00030A30800170000003CA3080017000000CF
:1042000044A308001700000048A30800170000009E
:1042100054A30800170000005CA30800170000006A
:1042200060A30800170000006CA30800170000003E
:1042300074A308001700000078A30800170000000E
:1042400084A30800170000008CA3080017000000DA
:1042500090A30800170000009CA3080017000000AE
:10426000A4A3080017000000A8A30800170000007E
:10427000B4A3080017000000BCA30800170000004A
:10428000C0A3080017000000CCA30800170000001E
:10429000D4A3080017000000D8A3080017000000EE
:1042A000E4A3080017000000ECA3080017000000BA
:1042B000F0A3080017000000FCA30800170000008E
:1042C00004A408001700000008A40800170000005C
:1042D00014A40800170000001CA408001700000028
:1042E00020A40800170000002CA4080017000000FC
:1042F00034A408001700000038A4080017000000CC
:1043000044A40800170000004CA408001700000097
:1043100050A40800170000005CA40800170000006B
:1043200064A408001700000068A40800170000003B
:1043300074A40800170000007CA408001700000007
:1043400080A40800170000008CA4080017000000DB
:1043500094A408001700000098A4080017000000AB
:10436000A4A4080017000000ACA408001700000077
:10437000B0A4080017000000BCA40800170000004B
:10438000C4A4080017000000C8A40800170000001B
:10439000D4A4080017000000DCA4080017000000E7
:1043A000E0A4080017000000ECA4080017000000BB
:1043B000F4A4080017000000F8A40800170000008B
:1043C00004A50800170000000CA508001700000055
:1043D00010A50800170000001CA508001700000029
:1043E00024A508001700000028A5080017000000F9
:1043F00034A50800170000003CA5080017000000C5
:1044000040A50800170000004CA508001700000098
:1044100054A508001700000058A508001700000068
:1044200064A50800170000006CA508001700000034
:1044300070A50800170000007CA508001700000008
:1044400084A508001700000088A5080017000000D8
:1044500094A50800170000009CA5080017000000A4
:10446000A0A5080017000000ACA508001700000078
:10447000B4A5080017000000B8A508001700000048
:10448000C4A5080017000000CCA508001700000014
:10449000D0A5080017000000DCA5080017000000E8
:1044A000E4A5080017000000E8A5080017000000B8
:1044B000F4A5080017000000FCA508001700000084
:1044C00000A60800170000000CA608001700000056
:1044D00014A608001700000018A608001700000026
:1044E00024A60800170000002CA6080017000000F2
:1044F00030A60800170000003CA6080017000000C6
:1045000044A608001700000048A608001700000095
:1045100054A60800170000005CA608001700000061
:1045200060A60800170000006CA608001700000035
:1045300074A608001700000078A608001700000005
:1045400084A60800170000008CA6080017000000D1
:1045500090A60800170000009CA6080017000000A5
:10456000A4A6080017000000A8A608001700000075
:10457000B4A6080017000000BCA608001700000041
:10458000C0A6080017000000CCA608001700000015
:10459000D4A6080017000000D8A6080017000000E5
:1045A000E4A6080017000000ECA6080017000000B1
:1045B000F0A6080017000000FCA608001700000085
:1045C00004A708001700000008A708001700000053
:1045D00014A70800170000001CA70800170000001F
:1045E00020A70800170000002CA7080017000000F3
:1045F00034A708001700000038A7080017000000C3
:1046000044A70800170000004CA70800170000008E
:1046100050A70800170000005CA708001700000062
:1046200064A708001700000068A708001700000032
:1046300074A70800170000007CA7080017000000FE
:1046400080A70800170000008CA7080017000000D2
:1046500094A708001700000098A7080017000000A2
:10466000A4A7080017000000ACA70800170000006E
:10467000B0A7080017000000BCA708001700000042
:10468000C4A7080017000000C8A708001700000012
:10469000DCA7080017000000E0A7080017000000D2
:1046A000F4A7080017000000F8A708001700000092
:1046B00004A80800170000000CA80800170000005C
:1046C00010A80800170000001CA808001700000030
:1046D00024A808001700000028A808001700000000
:1046E00034A80800170000003CA8080017000000CC
:1046F00040A80800170000004CA8080017000000A0
:1047000054A808001700000058A80800170000006F
:1047100064A80800170000006CA80800170000003B
:1047200070A80800170000007CA80800170000000F
:1047300084A808001700000088A8080017000000DF
:1047400094A80800170000009CA8080017000000AB
:10475000A0A8080017000000ACA80800170000007F
:10476000B4A8080017000000B8A80800170000004F
:10477000C4A8080017000000CCA80800170000001B
:10478000D0A8080017000000E4A8080017000000E7
:10479000E8A8080017000000FCA8080017000000A7
:1047A00000A908001700000014A908001700000065
:1047B00018A90800170000002CA908001700000025
:1047C00030A908001700000044A9080017000000E5
:1047D00048A90800170000005CA9080017000000A5
:1047E00060A90800170000006CA90800170000006D
:1047F00074A908001700000078A90800170000003D
:1048000084A90800170000008CA908001700000008
:1048100090A90800170000009CA9080017000000DC
:10482000A4A9080017000000A8A9080017000000AC
:10483000B4A9080017000000BCA908001700000078
:10484000C0A9080017000000CCA90800170000004C
:10485000D4A9080017000000D8A90800170000001C
:10486000E4A908001700000004AA080017000000CF
:1048700008AA08001700000014AA0800170000008A
:104880004CAA08001700000050AA080017000000FA
:104890005CAA08001700000064AA080017000000C6
:1048A00068AA08001700000074AA0800170000009A
:1048B0007CAA08001700000080AA0800170000006A
:1048C0008CAA08001700000094AA08001700000036
:1048D00098AA080017000000A4AA0800170000000A
:1048E000ACAA080017000000B0AA080017000000DA
:1048F000BCAA080017000000C4AA080017000000A6
:10490000C8AA080017000000D4AA08001700000079
:10491000DCAA080017000000E0AA08001700000049
:10492000ECAA080017000000F4AA08001700000015
:10493000F8AA08001700000004AB080017000000E8
:104940000CAB08001700000010AB080017000000B7
:104950001CAB08001700000024AB08001700000083
:1049600028AB08001700000034AB08001700000057
:104970003CAB08001700000040AB08001700000027
:104980004CAB08001700000054AB080017000000F3
:1049900058AB08001700000064AB080017000000C7
:1049A0006CAB08001700000070AB08001700000097
:1049B0007CAB08001700000084AB08001700000063
:1049C00088AB08001700000094AB08001700000037
:1049D0009CAB080017000000A0AB08001700000007
:1049E000ACAB080017000000B4AB080017000000D3
:1049F000B8AB080017000000C4AB080017000000A7
:104A0000CCAB080017000000D0AB08001700000076
:104A1000DCAB080017000000E4AB08001700000042
:104A2000E8AB080017000000F4AB08001700000016
:104A3000FCAB08001700000000AC080017000000E5
:104A40000CAC08001700000014AC080017000000B0
:104A500018AC08001700000024AC08001700000084
:104A60002CAC08001700000030AC08001700000054
:104A70003CAC08001700000044AC08001700000020
:104A800048AC08001700000054AC080017000000F4
:104A90005CAC08001700000060AC080017000000C4
:104AA0006CAC08001700000074AC08001700000090
:104AB00078AC08001700000084AC08001700000064
:104AC0008CAC08001700000090AC08001700000034
:104AD0009CAC080017000000A4AC08001700000000
:104AE000A8AC080017000000B4AC080017000000D4
:104AF000BCAC080017000000C0AC080017000000A4
:104B0000CCAC080017000000D4AC0800170000006F
:104B1000D8AC080017000000E4AC08001700000043
:104B2000ECAC080017000000F0AC08001700000013
:104B3000FCAC08001700000004AD080017000000DE
:104B400008AD08001700000014AD080017000000B1
:104B50001CAD08001700000020AD08001700000081
:104B60002CAD08001700000034AD0800170000004D
:104B700038AD08001700000044AD08001700000021
:104B80004CAD08001700000050AD080017000000F1
:104B90005CAD08001700000064AD080017000000BD
:104BA00068AD08001700000074AD08001700000091
:104BB0007CAD08001700000080AD08001700000061
:104BC0008CAD08001700000094AD0800170000002D
:104BD00098AD080017000000A4AD08001700000001
:104BE000ACAD080017000000B0AD080017000000D1
:104BF000BCAD080017000000C4AD0800170000009D
:104C0000C8AD080017000000D4AD08001700000070
:104C1000DCAD080017000000E0AD08001700000040
:104C2000F4AD080017000000F8AD08001700000000
:104C300004AE0800170000000CAE080017000000CA
:104C400010AE0800170000001CAE0800170000009E
:104C500024AE08001700000028AE0800170000006E
:104C600034AE0800170000003CAE0800170000003A
:104C700040AE0800170000004CAE0800170000000E
:104C800054AE08001700000058AE080017000000DE
:104C900064AE0800170000006CAE080017000000AA
:104CA00070AE0800170000007CAE0800170000007E
:104CB00084AE08001700000088AE0800170000004E
:104CC00094AE0800170000009CAE0800170000001A
:104CD000A0AE080017000000ACAE080017000000EE
:104CE000B4AE080017000000B8AE080017000000BE
:104CF000C4AE080017000000CCAE0800170000008A
:104D0000D0AE080017000000DCAE0800170000005D
:104D1000E4AE080017000000E8AE0800170000002D
:104D2000F4AE080017000000FCAE080017000000F9
:104D300000AF0800170000000CAF080017000000CB
:104D400014AF08001700000018AF0800170000009B
:104D500024AF0800170000002CAF08001700000067
:104D600030AF0800170000003CAF0800170000003B
:104D700044AF08001700000048AF0800170000000B
:104D800054AF0800170000005CAF080017000000D7
:104D900060AF0800170000006CAF080017000000AB
:104DA00074AF08001700000078AF0800170000007B
:104DB00084AF0800170000008CAF08001700000047
:104DC00090AF0800170000009CAF0800170000001B
:104DD000A4AF080017000000A8AF080017000000EB
:104DE000B4AF080017000000BCAF080017000000B7
:104DF000C0AF080017000000CCAF0800170000008B
:104E0000D4AF080017000000D8AF0800170000005A
:104E1000E4AF080017000000ECAF08001700000026
:104E2000F0AF080017000000FCAF080017000000FA
:104E300004B008001700000008B0080017000000C8
:104E400014B00800170000001CB008001700000094
:104E500020B00800170000002CB008001700000068
:104E600034B008001700000038B008001700000038
:104E700044B00800170000004CB008001700000004
:104E800050B00800170000005CB0080017000000D8
:104E900064B008001700000068B0080017000000A8
:104EA00074B00800170000007CB008001700000074
:104EB00080B00800170000008CB008001700000048
:104EC00094B008001700000098B008001700000018
:104ED000A4B0080017000000ACB0080017000000E4
:104EE000B0B0080017000000BCB0080017000000B8
:104EF000C4B0080017000000C8B008001700000088
:104F0000D4B0080017000000DCB008001700000053
:104F1000E0B0080017000000ECB008001700000027
:104F2000F4B0080017000000F8B0080017000000F7
:104F300004B10800170000000CB1080017000000C1
:104F400010B10800170000001CB108001700000095
:104F500024B108001700000028B108001700000065
:104F600034B10800170000003CB108001700000031
:104F700040B10800170000004CB108001700000005
:104F800054B108001700000058B1080017000000D5
:104F900064B10800170000006CB1080017000000A1
:104FA00070B10800170000007CB108001700000075
:104FB00084B108001700000088B108001700000045
:104FC00094B10800170000009CB108001700000011
:104FD000A0B1080017000000ACB1080017000000E5
:104FE000B4B1080017000000B8B1080017000000B5
:104FF000CCB1080017000000D0B108001700000075
:10500000DCB1080017000000E4B108001700000040
:10501000E8B1080017000000F4B108001700000014
:10502000FCB108001700000000B2080017000000E3
:105030000CB208001700000014B2080017000000AE
:1050400018B208001700000024B208001700000082
:105050002CB208001700000030B208001700000052
:105060003CB208001700000044B20800170000001E
:1050700048B208001700000054B2080017000000F2
:105080005CB208001700000060B2080017000000C2
:105090006CB208001700000074B20800170000008E
:1050A00078B208001700000084B208001700000062
:1050B0008CB208001700000090B208001700000032
:1050C0009CB2080017000000A4B2080017000000FE
:1050D000A8B2080017000000B4B2080017000000D2
:1050E000BCB2080017000000C0B2080017000000A2
:1050F000CCB2080017000000D4B20800170000006E
:10510000D8B2080017000000E4B208001700000041
:10511000ECB2080017000000F0B208001700000011
:10512000FCB208001700000004B3080017000000DC
:1051300008B308001700000014B3080017000000AF
:105140001CB308001700000020B30800170000007F
:105150002CB308001700000034B30800170000004B
:1051600038B308001700000044B30800170000001F
:105170004CB308001700000050B3080017000000EF
:105180005CB308001700000064B3080017000000BB
:1051900068B308001700000074B30800170000008F
:1051A0007CB308001700000080B30800170000005F
:1051B0008CB308001700000094B30800170000002B
:1051C00098B3080017000000A4B3080017000000FF
:1051D000ACB3080017000000B0B3080017000000CF
:1051E000BCB3080017000000C4B30800170000009B
:1051F000C8B3080017000000D4B30800170000006F
:10520000DCB3080017000000E0B30800170000003E
:10521000ECB3080017000000F4B30800170000000A
:10522000F8B308001700000004B4080017000000DD
:105230000CB408001700000010B4080017000000AC
:105240001CB408001700000024B408001700000078
:1052500028B408001700000034B40800170000004C
:105260003CB408001700000040B40800170000001C
:105270004CB408001700000054B4080017000000E8
:1052800058B408001700000064B4080017000000BC
:105290006CB408001700000070B40800170000008C
:1052A0007CB408001700000084B408001700000058
:1052B00088B408001700000094B40800170000002C
:1052C0009CB4080017000000A0B4080017000000FC
:1052D000ACB4080017000000B4B4080017000000C8
:1052E000B8B4080017000000C4B40800170000009C
:1052F000CCB4080017000000D0B40800170000006C
:10530000DCB4080017000000E4B408001700000037
:10531000E8B4080017000000F4B40800170000000B
:10532000FCB408001700000000B5080017000000DA
:105330000CB508001700000014B5080017000000A5
:1053400018B508001700000024B508001700000079
:105350002CB508001700000030B508001700000049
:105360003CB508001700000044B508001700000015
:1053700048B508001700000054B5080017000000E9
:105380005CB508001700000060B5080017000000B9
:1053900074B508001700000078B508001700000079
:1053A00084B50800170000008CB508001700000045
:1053B00090B50800170000009CB508001700000019
:1053C000A4B5080017000000A8B5080017000000E9
:1053D000B4B5080017000000BCB5080017000000B5
:1053E000C0B5080017000000CCB508001700000089
:1053F000D4B5080017000000D8B508001700000059
:10540000E4B5080017000000ECB508001700000024
:10541000F0B5080017000000FCB5080017000000F8
:1054200004B608001700000008B6080017000000C6
:1054300014B60800170000001CB608001700000092
:1054400020B60800170000002CB608001700000066
:1054500034B608001700000038B608001700000036
:1054600044B60800170000004CB608001700000002
:1054700050B608001700000064B6080017000000CE
:1054800068B60800170000007CB60800170000008E
:1054900080B608001700000094B60800170000004E
:1054A00098B6080017000000A4B608001700000016
:1054B000ACB6080017000000B0B6080017000000E6
:1054C000BCB6080017000000C4B6080017000000B2
:1054D000C8B6080017000000D4B608001700000086
:1054E000DCB6080017000000E0B608001700000056
:1054F000ECB6080017000000F4B608001700000022
:10550000F8B608001700000004B7080017000000F4
:105510000CB708001700000010B7080017000000C3
:105520001CB708001700000024B70800170000008F
:1055300028B70800170000003CB70800170000005B
:1055400040B708001700000054B70800170000001B
:1055500058B70800170000006CB7080017000000DB
:1055600070B708001700000084B70800170000009B
:1055700088B70800170000009CB70800170000005B
:10558000A0B7080017000000B4B70800170000001B
:10559000B8B7080017000000C4B7080017000000E3
:1055A000D4B7080017000000DCB70800170000009F
:1055B000E4B7080017000000F8B708001700000063
:1055C00008B808001700000010B808001700000015
:1055D00018B80800170000002CB8080017000000D9
:1055E0003CB808001700000044B80800170000008D
:1055F0004CB808001700000058B808001700000059
:1056000068B808001700000074B808001700000010
:105610007CB808001700000084B8080017000000DC
:105620008CB808001700000094B8080017000000AC
:105630009CB8080017000000A4B80800170000007C
:10564000ACB8080017000000B4B80800170000004C
:10565000BCB8080017000000C4B80800170000001C
:10566000CCB8080017000000D4B8080017000000EC
:10567000DCB8080017000000E4B8080017000000BC
:10568000ECB8080017000000F4B80800170000008C
:10569000FCB808001700000004B90800170000005B
:1056A0000CB908001700000014B90800170000002A
:1056B0001CB908001700000024B9080017000000FA
:1056C0002CB908001700000034B9080017000000CA
:1056D0003CB908001700000044B90800170000009A
:1056E0004CB908001700000054B90800170000006A
:1056F0005CB908001700000064B90800170000003A
:105700006CB908001700000074B908001700000009
:105710007CB908001700000084B9080017000000D9
:105720008CB908001700000094B9080017000000A9
:105730009CB9080017000000A4B908001700000079
:10574000ACB9080017000000B4B908001700000049
:10575000BCB9080017000000C4B908001700000019
:10576000CCB9080017000000D4B9080017000000E9
:10577000DCB9080017000000E4B9080017000000B9
:10578000ECB9080017000000F4B908001700000089
:10579000FCB908001700000004BA08001700000058
:1057A0000CBA08001700000014BA08001700000027
:1057B0001CBA08001700000024BA080017000000F7
:1057C0002CBA08001700000034BA080017000000C7
:1057D0003CBA08001700000044BA08001700000097
:1057E0004CBA08001700000054BA08001700000067
:1057F0005CBA08001700000064BA08001700000037
:105800006CBA08001700000074BA08001700000006
:105810007CBA08001700000084BA080017000000D6
:105820008CBA08001700000094BA080017000000A6
:105830009CBA080017000000A4BA08001700000076
:10584000ACBA080017000000B4BA08001700000046
:10585000BCBA080017000000C4BA08001700000016
:10586000CCBA080017000000D4BA080017000000E6
:10587000DCBA080017000000E4BA080017000000B6
:10588000ECBA080017000000F4BA08001700000086
:10589000FCBA08001700000004BB08001700000055
:1058A0000CBB08001700000014BB08001700000024
:1058B0001CBB08001700000024BB080017000000F4
:1058C0002CBB08001700000034BB080017000000C4
:1058D0003CBB08001700000044BB08001700000094
:1058E0004CBB08001700000054BB08001700000064
:1058F0005CBB08001700000064BB08001700000034
:105900006CBB08001700000074BB08001700000003
:105910007CBB08001700000084BB080017000000D3
:105920008CBB08001700000094BB080017000000A3
:105930009CBB080017000000A4BB08001700000073
:10594000ACBB080017000000B4BB08001700000043
:10595000BCBB080017000000C4BB08001700000013
:10596000CCBB080017000000D4BB080017000000E3
:10597000DCBB080017000000E4BB080017000000B3
:10598000ECBB080017000000F4BB08001700000083
:10599000FCBB08001700000004BC08001700000052
:1059A0000CBC08001700000014BC08001700000021
:1059B0001CBC08001700000024BC080017000000F1
:1059C0002CBC08001700000034BC080017000000C1
:1059D0003CBC08001700000044BC08001700000091
:1059E0004CBC08001700000054BC08001700000061
:1059F0005CBC08001700000064BC08001700000031
:105A00006CBC08001700000074BC08001700000000
:105A10007CBC08001700000084BC080017000000D0
:105A20008CBC08001700000094BC080017000000A0
:105A30009CBC080017000000A4BC08001700000070
:105A4000ACBC080017000000B4BC08001700000040
:105A5000D0BC080017000000ECBC080017000000D4
:105A600008BD08001700000024BD08001700000052
:105A700040BD0800170000005CBD080017000000D2
:105A800078BD08001700000094BD08001700000052
:105A9000B0BD080017000000CCBD080017000000D2
:105AA000E8BD08001700000004BE08001700000051
:105AB00020BE0800170000003CBE080017000000D0
:105AC00058BE08001700000074BE08001700000050
:105AD00090BE080017000000ACBE080017000000D0
