:1000000000000000000000000000000000000000F0
:1000100000000000000000000000000000000000E0
:1000200000000000000000000000000000000000D0
:1000300000000000000000000000000000000000C0
:1000400000000000000000000000000000000000B0
:1000500000000000000000000000000000000000A0
:100060000000000000000000000000000000000090
:100070000000000000000000000000000000000080
:10008000FFFFFFFFFFFFFFFFFFFFFFFFFFFFFFFF80
:10009000FFFFFFFF0000010002000300040000005A
:1000A000000000000000000000000000ADDEADDE3A
:1000B0000000000000000000000000000000000040
:1000C0000000000000000000000000000000000030
:1000D0000000000000000000000000000000000020
:1000E0000000000000000000000000000000000010
:1004C0000101656E0000000064000000640000008F
:1004D000FCFF030064000000030000001027000080
:1004E00053616D73756E67006D756C7469627569C3
:1004F0006C645F67706170690000000000000000BC
:1005000000000000000000000000000000000000EB
:1005100000000000000000000000000000000000DB
:1005200000000000000000000000000000000000CB
:1005300000000000000000000000000000000000BB
:101AF000000000006669766500000000000000003C
:101B000000000000000000000000000000000000D5
:101B100000000000010000000000000000000000C4
:101B200000000000000000000000000000000000B5
:101B300000000000000000000000000000000000A5
:101B40000000000000000000000000000000000095
:101B50000000000000000000000000000000000085
:101B60000000000000000000000000000000000075
:101B70000000000000000000000000000000000065
:101B800098030000000000000000000000000000BA
:101B90000000000000000000000000000000000045
:101BA0000000000000000000000000000000000035
:101BB0000000000000000000000000000000000025
:101BC0000000000000000000000000000000000015
:020000023000CC
:101C800000000000000000000000000001C203008E
:101C90000000000000000000000000000000000044
:101CA0000000000000000000000000000000000034
:101CB000000000FFFFFFFFFF000000000000000029
:101CC0000000000000000000000000000000000014
:101CD0000000000000000000000000000000000004
:101CE00000000000000000000000000000000000F4
:101CF0006A8E0400708E0400768E04007C8E0400D0
:101D0000828E0400888E04008E8E04005C450500DF
:101D10005445050058450500C8E3030001000000D4
:101D200001000000000000000200000001000000AF
:101D300010000000B4C40800020000000000000011
:101D40000800000091A00400A301000010000000A2
:101D5000100000001000000002500000910E010071
:101D60000511010000000000FC0000000000000060
:101D7000000000000000000000000000A2010000C0
:101D800010000000100000000000000001500000E2
:101D9000910E0100CD10010000000000FC000000C9
:101DA0000000000000000000000000000000000033
:101DB000A40100000100000010000000100000005D
:101DC00004500000910E0100A51001000000000069
:101DD000FC00000000000000000000000000000007
:101DE00000000000A501000001000000100000003C
:101DF0001000000003500000910E01007910010056
:101E000000000000FC0000000000000000000000D6
:101E100000000000000000008A0200000100000035
:101E2000100000001000000003400000910E0100AF
:101E3000B90F010000000000FC00000000000000DD
:101E40000000000000000000000000008D02000003
:101E5000010000001000000010000000034000001E
:101E6000910E01008D0F010000000000FC00000039
:101E70000000000000000000000000000000000062
:101E800088030000010000001000000010000000A6
:101E900005400000910E0100350F01000000000018
:101EA000FC00000000000000000000000000000036
:101EB00000000000A7010000100000001800000052
:101EC0001000000002500000910E010005110100F9
:101ED00000000000FC000000000000000000000006
:101EE0000000000000000000A6010000100000003B
:101EF000180000000000000001500000910E0100D9
:101F0000CD10010000000000FC00000000000000F7
:101F1000000000000000000000000000A801000018
:101F20000100000018000000100000000450000034
:101F3000910E0100A510010000000000FC0000004F
:101F40000000000000000000000000000000000091
:101F5000A9010000010000001800000010000000AE
:101F600003500000910E01007910010000000000F4
:101F7000FC00000000000000000000000000000065
:101F8000000000008B0200000100000018000000AB
:101F90001000000003400000910E0100B90F010085
:101FA00000000000FC000000000000000000000035
:101FB00000000000000000008E0200000100000090
:101FC000180000001000000003400000910E010006
:101FD0008D0F010000000000FC0000000000000068
:101FE0000000000000000000000000008903000065
:101FF0000100000018000000100000000540000073
:10200000910E0100350F010000000000FC000000EF
:1020100000000000000000000000000000000000C0
:10202000AB010000100000002000000010000000C4
:1020300002500000910E0100051101000000000097
:10204000FC00000000000000000000000000000094
:1020500000000000AA0100001000000020000000A5
:102060000000000001500000910E0100CD100100A1
:1020700000000000FC000000000000000000000064
:102080000000000000000000AC01000001000000A2
:10209000200000001000000004500000910E01001C
:1020A000A510010000000000FC000000000000007E
:1020B000000000000000000000000000AD01000072
:1020C000010000002000000010000000035000008C
:1020D000910E01007910010000000000FC000000DA
:1020E00000000000000000000000000000000000F0
:1020F0008C02000001000000200000001000000021
:1021000003400000910E0100B90F01000000000023
:10211000FC000000000000000000000000000000C3
:10212000000000008F0200000100000020000000FD
:102130001000000003400000910E01008D0F01000F
:1021400000000000FC000000000000000000000093
:1021500000000000000000008A03000001000000F1
:10216000200000001000000005400000910E01005A
:10217000350F010000000000FC000000000000001E
:10218000000000000000000000000000E0A50400C6
:10219000E6A504000000000001000000B80E0400E5
:1021A00000000000F0A50400F7A5040001000000F5
:1021B00006000000B90E0400000000000FA6040095
:1021C00014A604000200000007000000BF0E040077
:1021D000000000004BA6040031A60400030000002C
:1021E00008000000C60E04000000000068A60400FD
:1021F00093F104000400000008000000CE0E04006B
:1022000000000000A1B2040035A604000500000093
:1022100008000000D60E04000000000039A60400EB
:1022200039A604000600000009000000DE0E0400CC
:102230000000000047A604004FA6040007000000AD
:1022400009000000E70E04000000000064A604007E
:102250006CA604000800000009000000F00E040055
:102260000000000081A604008DA604000900000003
:1022700009000000F90E040000000000A2A60400FE
:10228000AEA604000A00000009000000020F0400CE
:1022900000000000C3A60400C8A604000B00000054
:1022A000010000000B0F040000000000E3A6040082
:1022B000E3A604000C000000020000000C0F040064
:1022C00000000000E8A60400EBA604000D000000DA
:1022D000030000000E0F040000000000C9E6040027
:1022E000F6A604000E00000003000000110F040019
:1022F000000000009013050002A704000F0000007A
:1023000003000000140F0400000000000FA70400E9
:1023100012A704001000000003000000170F0400C3
:10232000000000002927050026A704001100000076
:10233000030000001A0F04000000000037A704008B
:102340003AA7040012000000030000001D0F040063
:10235000000000008C04050051A7040013000000D9
:1023600004000000200F04000000000055A7040036
:1023700055A704001400000008000000240F04000A
:10238000000000005BA704005BA70400150000002C
:10239000090000002C0F04000000000066A70400E4
:1023A00066A704001600000009000000350F0400B5
:1023B0000000000077A7040077A7040017000000C2
:1023C000090000003E0F0400000000008BA704007D
:1023D0008BA704001800000009000000470F04004C
:1023E00000000000A8A70400A8A70400190000002E
:1023F00009000000500F040000000000B9A704000D
:10240000B9A704001A00000009000000590F0400D9
:1024100000000000CDA70400CDA704001B000000B1
:1024200008000000620F040000000000D3A70400B1
:10243000D3A704001C000000090000006A0F04007C
:1024400000000000E2A70400EAA704001D0000004D
:1024500005000000730F040000000000F2A7040054
:10246000FAA704001E00000005000000780F040019
:1024700000000000DBB4040002A804001F000000FC
:10248000050000007D0F0400000000000AA8040001
:1024900012A804002000000005000000820F0400C4
:1024A000000000001AA8040023A804002100000076
:1024B0000000000000000000000000002CA8040044
:1024C00035A80400220000000B000000870F040064
:1024D000000000003EA8040047A8040023000000FC
:1024E00000000000000000000000000050A80400F0
:1024F00059A80400240000000000000000000000B3
:1025000000000000E1AA040062A804002500000009
:1025100008000000920F0400000000006AA80400F8
:1025200072A8040026000000000000000000000067
:10253000000000007AA8040082A804002700000020
:102540000000000000000000000000008AA8040055
:1025500092A8040028000000000000000000000015
:10256000000000009AAA04009AA8040029000000B4
:10257000050000009A0F0400000000009EA804005F
:10258000A6A804002A000000050000009F0F040018
:1025900000000000BBA80400C7A804002B00000036
:1025A000000000000000000000000000D3A80400AC
:1025B000E0A804002C00000008000000A40F0400A4
:1025C00000000000EDA80400F5A804002D000000A4
:1025D00005000000AC0F040000000000FDA804008E
:1025E00006A904002E00000000000000000000000A
:1025F000000000000FA904000FA904002F00000034
:1026000008000000B10F04000000000015A904003C
:1026100015A904003000000009000000B90F0400F3
:102620000000000022A9040022A9040031000000DB
:1026300009000000C20F04000000000033A90400DC
:1026400033A904003200000009000000CB0F040091
:10265000000000003FA904003FA90400330000006F
:1026600009000000D40F0400000000004DA9040080
:102670004DA904003400000009000000DD0F040033
:102680000000000059A9040059A904003500000009
:1026900009000000E60F0400000000006AA9040021
:1026A0006AA904003600000009000000EF0F0400D2
:1026B000000000007CA904007CA904003700000091
:1026C00009000000F80F04000000000090A90400B9
:1026D00090A9040038000000090000000110040067
:1026E00000000000AEA90400B7A9040039000000F2
:1026F000070000000A10040000000000D5A9040033
:10270000DFA904003A0000000800000011100400D6
:1027100000000000FEA9040009AA04003B0000001C
:102720000800000019100400000000001CAA0400AA
:1027300028AA04003C000000000000000000000087
:102740000000000034AA040041AA04003D0000007B
:102750000000000000000000000000004EAA04007D
:102760005AAA04003E000000000000000000000023
:102770000000000066AA040073AA04003F000000E5
:1027800000000000000000000000000065AF040031
:1027900026A30400400000000500000021100400F2
:1027A0000000000036A3040080AA040041000000DD
:1027B00009000000261004000000000096AA040092
:1027C0009EAA040042000000050000002F10040033
:1027D00000000000A9AA0400B1AA04004300000000
:1027E000050000003410040000000000C3AA04002B
:1027F000D3AA0400440000000900000039100400BE
:1028000000000000E9AA0400E9AA04004500000055
:10281000090000004210040000000000F0AA0400BB
:10282000FDAA040046000000050000004B10040053
:10283000000000000DAB040018AB040047000000CE
:102840000900000050100400000000002BAB040041
:1028500035AB0400480000000900000059100400D6
:102860000000000047AB040057AB04004900000023
:102870000900000062100400000000006FAB0400BB
:1028800081AB04004A000000090000006B10040046
:10289000000000009CAB0400A9AB04004B0000004A
:1028A000090000007410040000000000BEAB04002A
:1028B000CCAB04004C000000090000007D100400B7
:1028C00000000000E3AB0400F3AB04004D00000087
:1028D0000900000086100400000000000CAC040099
:1028E00016AC04004E000000090000008F10040028
:1028F0000000000027AC040036AC04004F000000CC
:1029000009000000981004000000000054AC04000E
:102910005DAC04005000000000000000000000005A
:102920000000000066AC040066AC0400510000002A
:1029300002000000A1100400000000006CAC0400C4
:1029400081AC04005200000003000000A31004004A
:10295000000000009FAC0400A8AC0400530000007D
:1029600003000000A610040000000000B9AC040041
:10297000CFAC04005400000003000000A9100400C4
:1029800000000000EFAC0400FEAC040055000000A5
:1029900003000000AC100400000000001EAD0400A5
:1029A0002CAD04005600000003000000AF1004002E
:1029B000000000004BAD04005CAD040057000000B7
:1029C00003000000B21004000000000075AD040018
:1029D0007FAD04005800000003000000B5100400A3
:1029E0000000000091AD0400A5AD040059000000F6
:1029F00003000000B810040000000000C1AD040096
:102A0000D8AD04005A00000003000000BB10040011
:102A100000000000F8AD0400FFAD04005B00000002
:102A200009000000BE1004000000000006AE040013
:102A30000DAE04005C00000000000000000000007B
:102A40000000000014AE04001BAE04005D00000096
:102A500000000000000000000000000022AE0400A2
:102A600029AE04005E00000000000000000000002D
:102A70000000000039AE040030AE04005F0000002A
:102A800004000000C71004000000000035AE040080
:102A90003EAE04006000000004000000CB10040003
:102AA0000000000087B204004AAE0400610000008C
:102AB00000000000000000000000000051AE040013
:102AC0005CAE040062000000000000000000000096
:102AD0000000000067AE04006AAE0400630000005E
:102AE00003000000CF1004000000000074AE0400DA
:102AF00077AE04006400000003000000D210040060
:102B0000000000007FAE04007FAE040065000000FE
:102B100003000000D51004000000000000000000C9
:102B200000000000000000000000000000000000A5
:102B30000000000088AE04009EAE040067000000A4
:102B400003000000D810040000000000BDAE040027
:102B5000C8AE04006800000005000000DB1004009F
:102B600000000000D3AE0400D3AE040069000000F2
:102B700003000000E010040000000000E0AE0400CC
:102B8000E0AE04006A00000003000000E31004004F
:102B9000000000000A9804000A9804006B0000007E
:102BA00003000000E610040000000000E6AE040090
:102BB000F0AE04006C00000009000000E910040001
:102BC00000000000FAAE040004AF04006D00000035
:102BD0000000000000000000000000000EAF040034
:102BE00018AF04006E0000000000000000000000AC
:102BF0000000000022AF04002CAF04006F000000B2
:102C000000000000000000000000000036AF0400DB
:102C100036AF04007000000009000000F21004004C
:102C2000000000004CAF040055AF0400710000002C
:102C300007000000FB1004000000000061AF04006A
:102C40006AAF0400720000000000000000000000F5
:102C5000000000002BA3040073AF04007300000009
:102C60000500000002110400000000006CCB04000D
:102C70007FAF04007400000007000000071104008B
:102C8000000000009BAF04008DAF04007500000041
:102C9000050000000E11040000000000000000000C
:102CA0000000000000000000000000000000000024
:102CB0000000000097AF0400A5AF040077000000FB
:102CC000060000001311040000000000B6AF04006D
:102CD000BEAF0400780000000800000019110400D5
:102CE00000000000C6AF0400CEAF04007900000071
:102CF000000000000000000000000000D6AF04004B
:102D0000DEAF04007A0000000000000000000000B8
:102D100000000000E6AF0400EEAF04007B000000FE
:102D2000000000000000000000000000F6AF0400FA
:102D3000FAAF04007C00000006000000211104002E
:102D40000000000011B0040016B004007D00000077
:102D50000B000000271104000000000027B0040051
:102D600038B004007E0000000300000032110400AF
:102D70000000000052B0040052B004007F000000C8
:102D800006000000351104000000000057B00400E8
:102D900057B0040080000000070000003B11040051
:102DA000000000005DB0040068B004008100000075
:102DB00008000000421104000000000086B004007A
:102DC00091B0040082000000080000004A110400D5
:102DD00000000000AFB0040035B104008300000023
:102DE000080000005211040000000000BBB0040005
:102DF000CBB0040084000000080000005A11040059
:102E000000000000DDB0040049C40400850000009B
:102E1000080000006211040000000000EAB0040095
:102E2000F4B00400860000000A0000006A110400EB
:102E30000000000016B1040020B10400870000006B
:102E40000A000000741104000000000042B10400F8
:102E50004CB10400880000000A0000007E1104004C
:102E60000000000069B104006FB104008900000097
:102E70000A00000088110400000000008DB1040069
:102E800093B104008A0000000A00000092110400BF
:102E900000000000B3B10400B9B104008B000000D1
:102EA000090000009C11040000000000D6B10400DD
:102EB000DFB104008C00000003000000A511040035
:102EC00000000000FAB1040004B204008D0000000C
:102ED00003000000A8110400000000001BB2040061
:102EE0002AB204008E00000003000000AB110400B1
:102EF000000000003AB2040042B204008F0000005B
:102F000005000000AE1104000000000055B20400EE
:102F100066B20400900000000A000000B311040033
:102F2000000000007EB204008EB204009100000098
:102F30000A000000BD11040000000000A5B204005A
:102F4000B3B20400920000000A000000C7110400A0
:102F500000000000D4B20400E2B2040093000000BC
:102F60000A000000D11104000000000003B30400B7
:102F700014B30400940000000A000000DB110400F8
:102F80000000000030B3040040B3040095000000CE
:102F90000A000000E5110400000000005BB304001B
:102FA0005BB30400960000000B000000EF1104006A
:102FB0000000000062B3040062B304009700000048
:102FC0000B000000FA1104000000000076B30400BA
:102FD00076B30400980000000B0000000512040006
:102FE000000000007EB304007EB3040099000000DE
:102FF0000B000000101204000000000085B3040064
:1030000085B304009A0000000B0000001B120400AE
:10301000000000008FB304008FB304009B00000089
:103020000B00000026120400000000009FB3040003
:103030009FB304009C00000009000000311204004E
:1030400000000000ACB30400ACB304009D0000001D
:10305000090000003A12040000000000B7B30400A9
:10306000B7B304009E0000000A00000043120400F1
:1030700000000000C7B30400C7B304009F000000B5
:103080000A0000004D12040000000000D7B3040045
:10309000D7B30400A00000000A000000571204008B
:1030A00000000000DFB30400DFB30400A100000053
:1030B000090000006112040000000000E5B30400F4
:1030C000E5B30400A2000000090000006A12040039
:1030D00000000000ECB30400ECB30400A300000007
:1030E000080000007312040000000000F9B304009F
:1030F00003B40400A4000000080000007B120400D8
:103100000000000018B4040026B40400A50000006C
:1031100008000000831204000000000043B4040013
:103120004EB40400A60000000000000000000000F3
:103130000000000059B4040064B40400A7000000BB
:10314000090000008B1204000000000078B40400A5
:1031500087B40400A80000000900000094120400D5
:10316000000000009CB40400ABB40400A9000000FF
:10317000090000009D12040000000000C0B404001B
:10318000CDB40400AA00000009000000A61204004B
:1031900000000000E3B40400ECB40400AB00000045
:1031A0000A000000AF1204000000000008B504008F
:1031B000F6B40400AC00000009000000B9120400DD
:1031C000000000004192040041920400AD000000A4
:1031D00003000000C2120400000000000FB504004C
:1031E0000FB50400AE00000003000000C51204008B
:1031F000000000001BB504001BB50400AF00000078
:1032000007000000C81204000000000021B50400FF
:1032100021B50400B000000007000000CF12040038
:103220000000000027B504003BB50400B100000019
:1032300008000000D61204000000000058B5040089
:1032400058B50400B200000008000000DE120400BF
:10325000000000005DB5040067B50400B300000085
:1032600008000000E61204000000000072B504002F
:103270007EB50400B400000008000000EE12040057
:10328000000000008BB504008FB50400B5000000FD
:1032900001000000F61204000000000093B50400D5
:1032A0009FB50400B600000001000000F712040002
:1032B00000000000AFB50400B6B50400B700000080
:1032C00003000000F812040000000000C9B504006B
:1032D000CFB50400B800000005000000FB12040098
:1032E00000000000D5B50400DAB50400B900000004
:1032F000060000000013040000000000E5B5040013
:10330000E5B50400BA000000080000000613040040
:1033100000000000EBB50400EBB50400BB000000AA
:10332000080000000E13040000000000F1B50400C6
:10333000F7B50400BC0000000900000016130400EB
:1033400000000000FEB50400FEB50400BD00000052
:103350000A0000001F130400000000000BB6040068
:103360000BB60400BE0000000A0000002913040090
:103370000000000017B6040017B60400BF000000EC
:103380000A000000331304000000000023B604000C
:1033900023B60400C00000000A0000003D13040032
:1033A0000000000030B6040030B60400C100000088
:1033B0000A00000047130400000000003CB60400AF
:1033C0003CB60400C20000000A00000051130400D3
:1033D0000000000049B6040049B60400C300000024
:1033E0000A0000005B1304000000000056B6040051
:1033F00056B60400C40000000B0000006513040072
:103400000000000067B6040067B60400C5000000B5
:103410000B000000701304000000000078B60400E8
:1034200078B60400C60000000B0000007B13040007
:103430000000000089B6040089B60400C70000003F
:103440000B00000086130400000000009DB604007D
:103450009DB60400C80000000B000000911304009A
:1034600000000000BCB60400BCB60400C9000000A7
:103470000B0000009C13040000000000DBB60400F9
:10348000DBB60400CA0000000B000000A713040014
:1034900000000000FAB60400FAB60400CB000000F9
:1034A0000B000000B21304000000000019B7040074
:1034B00019B70400CC0000000B000000BD1304008D
:1034C000000000002DB704002DB70400CD0000005F
:1034D0000B000000C81304000000000042B7040005
:1034E00042B70400CE0000000B000000D31304001C
:1034F000000000005AB704005AB70400CF000000D3
:103500000B000000DE130400000000006EB7040092
:103510006EB70400D00000000B000000E9130400A7
:103520000000000082B7040082B70400D100000050
:103530000B000000F4130400000000009AB7040020
:103540009AB70400D20000000B000000FF13040033
:1035500000000000B6B70400B6B70400D3000000B6
:103560000B0000000A14040000000000D3B70400A0
:10357000D3B70400D40000000B00000015140400B1
:1035800000000000EEB70400EEB70400D500000014
:103590000B000000201404000000000008B8040024
:1035A00008B80400D60000000B0000002B14040033
:1035B0000000000024B8040024B80400D700000074
:1035C0000B00000036140400000000003CB80400AA
:1035D0003CB80400D80000000B00000041140400B7
:1035E0000000000055B8040055B80400D9000000E0
:1035F0000B0000004C1404000000000072B804002E
:1036000072B80400DA0000000B0000005714040038
:103610000000000090B8040090B80400DB00000037
:103620000B0000006214040000000000A5B80400B4
:10363000A5B80400DC0000000B0000006D140400BD
:1036400000000000C2B80400C2B80400DD000000A1
:103650000B0000007814040000000000DFB8040034
:10366000DFB80400DE0000000B000000831404003B
:1036700000000000F9B80400F9B80400DF00000001
:103680000B0000008E1404000000000018B90400B4
:1036900018B90400E00000000B00000099140400B9
:1036A0000000000036B9040036B90400E100000053
:1036B0000B000000A41404000000000051B9040035
:1036C00051B90400E20000000B000000AF14040038
:1036D000000000006DB904006DB90400E3000000B3
:1036E0000B000000BA140400000000008CB90400B4
:1036F0008CB90400E40000000B000000C5140400B5
:1037000000000000ABB90400ABB90400E500000004
:103710000B000000D014040000000000C6B9040033
:10372000C6B90400E60000000B000000DB14040032
:1037300000000000E3B90400E3B90400E700000062
:103740000B000000E61404000000000004BA0400AE
:1037500004BA0400E80000000B000000F1140400AB
:103760000000000024BA040024BA0400E9000000AC
:103770000B000000FC1404000000000043BA040029
:1037800043BA0400EA0000000B0000000715040023
:10379000000000005EBA04005EBA0400EB00000006
:1037A0000B00000012150400000000007FBA0400A6
:1037B0007FBA0400EC0000000B0000001D1504009F
:1037C000000000009CBA04009CBA0400ED00000058
:1037D0000B0000002815040000000000BDBA040022
:1037E000BDBA0400EE0000000B0000003315040019
:1037F00000000000DEBA0400DEBA0400EF000000A2
:103800000B0000003E15040000000000F8BA0400A0
:10381000F8BA0400F00000000B0000004915040095
:10382000000000000DBB04000DBB0400F10000000F
:103830000B000000541504000000000027BB04002A
:1038400027BB0400F20000000B0000005F1504001D
:103850000000000040BB040040BB0400F300000077
:103860000B0000006A1504000000000056BB0400B5
:1038700056BB0400F40000000B00000075150400A6
:10388000000000006BBB04006BBB0400F5000000EF
:103890000B00000080150400000000007DBB040048
:1038A0007DBB0400F60000000B0000008B15040037
:1038B0000000000096BB040096BB0400F700000067
:1038C0000B0000009615040000000000AEBB0400D1
:1038D000AEBB0400F80000000B000000A1150400BE
:1038E00000000000BFBB0400BFBB0400F9000000E3
:1038F0000B000000AC15040000000000D8BB040061
:10390000D8BB0400FA0000000B000000B71504004B
:1039100000000000F5BB0400F5BB0400FB00000044
:103920000B000000C21504000000000014BC0400DD
:1039300014BC0400FC0000000B000000CD150400C6
:103940000000000034BC040034BC0400FD00000092
:103950000B000000D81504000000000055BC040056
:1039600055BC0400FE0000000B000000E31504003D
:103970000000000074BC040074BC0400FF000000E0
:103980000B000000EE1504000000000095BC0400D0
:1039900095BC0400000100000B000000F9150400B4
:1039A00000000000CFC60400B6BC04000101000006
:1039B000080000000416040000000000BABC040067
:1039C000BABC040002010000070000000C1604004D
:1039D00000000000C6BC0400C6BC040003010000D7
:1039E000070000001316040000000000CCBC040017
:1039F000CCBC040004010000070000001A160400FB
:103A000000000000D2BC0400D2BC0400050100008C
:103A1000070000002116040000000000DABC0400CA
:103A2000DABC0400060100000700000028160400AC
:103A300000000000E1BC0400E1BC0400070100003C
:103A4000070000002F16040000000000E8BC04007E
:103A5000E8BC04000801000007000000361604005E
:103A600000000000EEBC0400EEBC040009010000F0
:103A7000070000003D16040000000000F5BC040033
:103A8000F5BC04000A010000070000004416040011
:103A900000000000FCBC0400FCBC04000B010000A2
:103AA000070000004B1604000000000003BD0400E6
:103AB00003BD04000C0100000700000052160400C2
:103AC000000000000ABD04000ABD04000D01000052
:103AD0000800000059160400000000001FBD04008B
:103AE0001FBD04000E010000080000006116040064
:103AF0000000000034BD040034BD04000F010000CC
:103B000008000000691604000000000049BD040020
:103B100049BD0400100100000800000071160400F7
:103B2000000000005EBD04005EBD04001101000045
:103B30000800000079160400000000006ABD0400BF
:103B40006ABD040012010000080000008116040094
:103B50000000000075BD040075BD040013010000E5
:103B60000800000089160400000000008BBD04005E
:103B70008BBD040014010000080000009116040031
:103B800000000000A1BD0400A1BD0400150100005B
:103B9000080000009916040000000000ACBD0400FD
:103BA000ACBD04001601000008000000A1160400CE
:103BB00000000000C5BD0400C5BD040017010000E1
:103BC00008000000A916040000000000DEBD04008B
:103BD000DEBD04001801000008000000B11604005A
:103BE00000000000F4BD0400F4BD04001901000051
:103BF00008000000B9160400000000000EBE04001A
:103C00000EBE04001A01000008000000C1160400E6
:103C1000000000001ABE04001ABE04001B010000D0
:103C200008000000C91604000000000026BE0400C1
:103C300026BE04001C01000008000000D11604008C
:103C40000000000035BE040043BE04001D0100005A
:103C500008000000D91604000000000052BE040055
:103C600052BE04001E01000008000000E11604001E
:103C7000000000005FBE04005FBE04001F010000E2
:103C800008000000E9160400000000006EBE0400F9
:103C90006EBE04002001000008000000F1160400C0
:103CA000000000007BBE04007BBE04002101000078
:103CB00008000000F91604000000000086BE0400A1
:103CC00086BE040022010000080000000117040065
:103CD0000000000097BE040097BE0400230100000E
:103CE000080000000917040000000000ADBE040039
:103CF000ADBE0400240100000800000011170400FC
:103D000000000000C3BE0400C3BE04002501000083
:103D1000080000001917040000000000CEBE0400D7
:103D2000DDBE040026010000080000002117040089
:103D300000000000EEBE0400FABE040027010000EF
:103D400008000000291704000000000007BF04005D
:103D500011BF040028010000080000003117040012
:103D6000000000005AC4040062C4040029010000DD
:103D70000800000039170400000000001CBF040008
:103D80001CBF04002A0100000800000041170400C5
:103D90000000000030BF040030BF04002B01000011
:103DA00008000000491704000000000047BF04009D
:103DB00047BF04002C010000080000005117040058
:103DC000000000005DBF04005DBF04002D01000085
:103DD00008000000591704000000000074BF040030
:103DE00074BF04002E0100000800000061170400E9
:103DF000000000008ABF04008ABF04002F010000F9
:103E00000800000069170400000000009BBF0400C8
:103E10009BBF04003001000008000000711704007F
:103E200000000000B1BF0400B1BF04003101000078
:103E3000080000007917040000000000CBBF040058
:103E4000CBBF04003201000008000000811704000D
:103E500000000000E6BF0400E6BF040033010000DC
:103E6000080000008917040000000000FCBF0400E7
:103E7000FCBF04003401000008000000911704009A
:103E80000000000012C0040012C004003501000050
:103E900008000000991704000000000026C004007C
:103EA00026C004003601000008000000A11704002D
:103EB000000000003CC004003CC0040037010000CA
:103EC00008000000A91704000000000052C0040010
:103ED00052C004003801000008000000B1170400BF
:103EE0000000000067C0040067C004003901000042
:103EF00008000000B91704000000000072C00400B0
:103F000072C004003A01000008000000C11704005C
:103F1000000000007DC004007DC004003B010000E3
:103F200009000000C91704000000000091C004004F
:103F300091C004003C01000009000000D2170400F9
:103F400000000000AAC00400AAC004003D01000057
:103F500009000000DB17040000000000C8C00400D6
:103F6000C8C004003E01000009000000E41704007E
:103F700000000000E5C00400E5C004003F010000AF
:103F800009000000ED17040000000000FAC0040062
:103F9000FAC004004001000009000000F617040008
:103FA0000000000015C1040015C10400410100001B
:103FB00009000000FF170400000000002AC10400EF
:103FC0002AC1040042010000090000000818040092
:103FD000000000003DC104003DC104004301000099
:103FE0000800000011180400000000004AC104008D
:103FF0004AC1040044010000080000001918040030
:10400000000000005DC104005DC104004501000026
:1040100008000000211804000000000075C1040021
:1040200075C10400460100000800000029180400C2
:104030000000000083C1040083C1040047010000A8
:1040400008000000311804000000000095C10400C1
:1040500095C1040048010000080000003918040060
:1040600000000000ABC10400ABC104004901000026
:10407000080000004118040000000000C0C1040056
:10408000C0C104004A0100000800000049180400F3
:1040900000000000D2C10400D2C104004B010000A6
:1040A000080000005118040000000000E7C10400EF
:1040B000E7C104004C01000008000000591804008A
:1040C00000000000FAC10400FAC104004D01000024
:1040D00008000000611804000000000010C2040085
:1040E00010C204004E01000008000000691804001E
:1040F0000000000025C2040025C204004F0100009A
:1041000008000000711804000000000039C204001B
:1041100039C20400500100000800000079180400B2
:10412000000000004DC204004DC204005101000017
:1041300008000000811804000000000062C20400B2
:1041400062C2040052010000080000008918040047
:104150000000000071C2040071C20400530100009D
:104160000800000091180400000000007FC2040055
:104170007FC20400540100000800000099180400E8
:104180000000000094C2040094C204005501000025
:1041900008000000A118040000000000A3C20400F1
:1041A000A3C204005601000008000000A918040082
:1041B00000000000B7C20400B7C2040057010000AD
:1041C00008000000B118040000000000CBC2040089
:1041D000CBC204005801000008000000B918040018
:1041E00000000000E0C20400E0C204005901000029
:1041F00008000000C118040000000000F6C204001E
:10420000F6C204005A01000008000000C9180400AA
:104210000000000013C3040013C304005B0100008E
:1042200008000000D11804000000000026C30400AC
:1042300026C304005C01000008000000D918040037
:104240000000000039C3040039C304005D01000010
:1042500008000000E1180400000000000000000059
:10426000000000000000000000000000000000004E
:10427000000000004DC304004DC304005F010000B6
:1042800008000000E9180400000000005BC30400FF
:104290005BC304006001000008000000F118040086
:1042A0000000000077C3040077C304006101000030
:1042B00008000000F91804000000000091C3040089
:1042C00091C304006201000008000000011904000D
:1042D00000000000ABC30400ABC304006301000096
:1042E000080000000919040000000000C1C3040018
:1042F000C1C304006401000008000000111904009B
:1043000000000000D9C30400D9C304006501000007
:10431000080000001919040000000000E6C30400B2
:10432000E6C3040066010000080000002119040033
:1043300000000000F2C30400F2C3040067010000A3
:1043400008000000291904000000000009C404004E
:1043500009C40400680100000800000031190400CD
:104360000000000014C4040014C40400690100002B
:1043700008000000391904000000000023C40400F4
:1043800023C404006A010000080000004119040071
:104390000000000036C4040046C404006B010000A5
:1043A00008000000491904000000000057C4040080
:1043B0005FC404006C0100000800000051190400F3
:1043C0000000000067C4040079C404006D0100000F
:1043D00009000000591904000000000092C4040004
:1043E0008DC404006E010000090000006219040081
:1043F0000000000098C404009EC404006F01000087
:10440000090000006B19040000000000AAC40400A9
:10441000BEC404007001000009000000741904000B
:1044200000000000D8C40400E0C4040071010000D2
:10443000090000007D19040000000000EEC4040023
:10444000FCC4040072010000090000008619040089
:104450000000000010C504001FC504007301000027
:10446000090000008F1904000000000034C504009A
:1044700043C50400740100000900000098190400FD
:104480000000000058C5040058C504007501000074
:1044900009000000A1190400000000005EC504002E
:1044A0005EC504007601000009000000AA1904009E
:1044B0000000000063C504006DC504007701000022
:1044C00009000000B31904000000000078C50400D2
:1044D00078C504007801000004000000BC19040045
:1044E0000000000082C5040082C5040079010000BC
:1044F00005000000C0190400000000008FC5040082
:104500009EC504007A01000002000000C5190400E5
:1045100000000000BEC50400C2C504007B0100000D
:1045200001000000C719040000000000C6C5040017
:10453000CAC504007C01000002000000C819040084
:1045400000000000CEC50400D3C504007D010000BA
:1045500003000000CA19040000000000D8C50400D0
:10456000E2C504007E01000004000000CD19040033
:1045700000000000ECC50400F1C504007F0100004C
:1045800004000000D119040000000000FCC5040074
:1045900009C604008001000004000000D5190400D1
:1045A0000000000016C604001EC6040081010000C1
:1045B00004000000D91904000000000026C6040011
:1045C0002FC604008201000004000000DD19040071
:1045D0000000000038C604003FC60400830100004C
:1045E00004000000E11904000000000046C60400B9
:1045F00046C604008401000004000000E519040020
:10460000000000004BC6040057C6040085010000EE
:1046100005000000E91904000000000063C6040062
:104620006CC604008601000009000000EE190400B9
:104630000000000075C6040078C604008701000071
:104640000A000000F71904000000000088C60400FA
:1046500015CB0400880100000A000000011A0400C4
:10466000000000008D1305008D1305008901000076
:10467000010000000B1A0400000000008FC60400B7
:10468000A8C604008A010000030000000C1A040000
:1046900000000000C1C60400C1C604008B01000078
:1046A000040000000F1A040000000000CBC6040044
:1046B000D3C604008C01000009000000131A040096
:1046C00000000000E8C60400E8C604008D010000F8
:1046D000080000001C1A040000000000F4C60400DA
:1046E00006C704008E01000008000000241A040020
:1046F0000000000021C7040021C704008F01000052
:10470000080000002C1A040000000000EDC30400A3
:10471000EDC304009001000003000000341A0400FF
:104720000000000031C7040043C7040091010000ED
:1047300003000000371A0400000000005DC70400F9
:104740006FC7040092010000030000003A1A040041
:104750000000000083C704008EC70400930100001E
:10476000030000003D1A0400000000008D13050046
:104770008D1305009401000001000000401A0400A0
:1047800000000000ADC70400B8C704009501000098
:1047900005000000411A040000000000C3C7040027
:1047A000C3C704009601000007000000461A040079
:1047B00000000000CFC70400CFC70400970100002D
:1047C000070000004D1A040000000000E8C70400C4
:1047D000E8C704009801000007000000541A040014
:1047E00000000000F7C70400F7C7040099010000AB
:1047F000080000005B1A04000000000002C804006A
:1048000002C804009A01000008000000631A0400B6
:10481000000000000DC804000DC804009B0100004A
:10482000080000006B1A04000000000018C8040013
:1048300018C804009C01000008000000731A04005E
:104840000000000023C8040023C804009D010000EC
:10485000080000007B1A0400000000002EC80400BD
:104860002EC804009E01000008000000831A040006
:104870000000000039C8040039C804009F0100008E
:10488000080000008B1A04000000000044C8040067
:1048900044C80400A001000007000000931A0400AF
:1048A0000000000054C804005CC80400A10100001E
:1048B000090000009A1A0400000000006FC80400FC
:1048C0007BC80400A201000009000000A31A040034
:1048D0000000000087C8040093C80400A301000082
:1048E00009000000AC1A0400000000009FC804008A
:1048F000ABC80400A401000009000000B51A0400C0
:1049000000000000B7C80400C3C80400A5010000EF
:1049100009000000BE1A040000000000CFC8040017
:10492000DBC80400A601000009000000C71A04004B
:1049300000000000E7C80400F3C80400A70100005D
:1049400009000000D01A040000000000FFC80400A5
:104950000BC90400A801000009000000D91A0400D6
:104960000000000017C9040023C90400A9010000C9
:1049700009000000E21A0400000000002FC9040032
:104980003BC90400AA01000009000000EB1A040062
:104990000000000047C9040053C90400AB01000037
:1049A00009000000F41A0400000000005FC90400C0
:1049B0006BC90400AC01000009000000FD1A0400EE
:1049C0000000000077C9040083C90400AD010000A5
:1049D00009000000061B0400000000008FC904004D
:1049E000A3C90400AE010000030000000F1B040077
:1049F00000000000B9C90400CDC90400AF010000E7
:104A000007000000121B040000000000E3C90400BE
:104A1000FDC90400B001000007000000191B0400DC
:104A2000000000001ACA040030CA0400B1010000EE
:104A300007000000201B04000000000061A7040024
:104A400061A70400B201000001000000271B040060
:104A50000000000048CA040048CA0400B301000076
:104A600003000000281B0400000000004CCA0400E2
:104A70004CCA0400B4010000070000002B1B040016
:104A80000000000050CA040050CA0400B501000034
:104A900008000000321B04000000000056CA040099
:104AA00056CA0400B6010000090000003A1B0400C9
:104AB0000000000069CA040069CA0400B7010000D0
:104AC00009000000431B0400000000007ECA04002F
:104AD0007ECA0400B8010000090000004C1B04005D
:104AE000000000008FCA04008FCA0400B901000052
:104AF00009000000551B0400000000009BCA0400D0
:104B00009BCA0400BA0100000A0000005E1B0400FA
:104B100000000000ABCA0400ABCA0400BB010000E7
:104B20000A000000681B040000000000C5CA040061
:104B3000C5CA0400BC0100000A000000721B04008A
:104B400000000000D1CA0400D1CA0400BD01000069
:104B50000A0000007C1B040000000000DDCA040005
:104B6000DDCA0400BE0100000A000000861B04002C
:104B700000000000E5CA0400E5CA0400BF0100000F
:104B80000A000000901B040000000000EECA0400B0
:104B9000EECA0400C00100000A0000009A1B0400D5
:104BA00000000000F3CA0400F3CA0400C1010000C1
:104BB0000A000000A41B04000000000002CB040057
:104BC00002CB0400C20100000A000000AE1B04007A
:104BD0000000000012CB040012CB0400C30100004F
:104BE0000A000000B81B0400000000001CCB0400F9
:104BF0001CCB0400C40100000A000000C21B04001A
:104C00000000000030CB040030CB0400C5010000E0
:104C10000A000000CC1B04000000000040CB040090
:104C200040CB0400C60100000A000000D61B0400AF
:104C30000000000055CB040055CB0400C701000064
:104C40000A000000E01B04000000000067CB040025
:104C500067CB0400C80100000A000000EA1B040042
:104C60000000000070CB040070CB0400C9010000FC
:104C70000A000000F41B04000000000084CB0400C4
:104C800088CB0400CA0100000A000000FE1B0400DB
:104C9000000000008FCB04008FCB0400CB0100008C
:104CA0000A000000081C040000000000A4CB04005F
:104CB000A9CB0400CC0100000A000000121C040073
:104CC00000000000B7CB0400B7CB0400CD0100000A
:104CD0000A0000001C1C040000000000BCCB040003
:104CE000BCCB0400CE0100000A000000261C04001A
:104CF00000000000CBCB0400CBCB0400CF010000B0
:104D00000A000000301C040000000000D6CB0400A4
:104D1000D6CB0400D00100000A0000003A1C0400B9
:104D200000000000DCCB0400DCCB0400D10100005B
:104D30000A000000441C040000000000E6CB040050
:104D4000E6CB0400D20100000A0000004E1C040063
:104D500000000000EBCB0400EBCB0400D30100000B
:104D60000A000000581C040000000000F3CB0400FF
:104D7000F3CB0400D40100000A000000621C040010
:104D80000000000006CC040006CC0400D5010000A1
:104D90000A0000006C1C04000000000014CC040099
:104DA00014CC0400D60100000A000000761C0400A8
:104DB0000000000024CC040024CC0400D701000033
:104DC0000A000000801C04000000000033CC040036
:104DD00033CC0400D80100000A0000008A1C040043
:104DE0000000000044CC040044CC0400D9010000C1
:104DF0000A000000941C04000000000058CC0400CD
:104E000058CC0400DA0100000A0000009E1C0400D7
:104E10000000000062CC040062CC0400DB01000052
:104E20000A000000A81C0400000000006FCC040071
:104E30006FCC0400DC0100000A000000B21C04007A
:104E40000000000080CC040080CC0400DD010000E4
:104E50000A000000BC1C0400000000008FCC04000D
:104E60008FCC0400DE0100000A000000C61C040014
:104E70000000000097CC040097CC0400DF01000084
:104E80000A000000D01C040000000000ACCC0400AC
:104E9000ACCC0400E00100000A000000DA1C0400B1
:104EA00000000000B5CC0400B5CC0400E101000016
:104EB0000A000000E41C040000000000BECC040056
:104EC000BECC0400E20100000A000000EE1C040059
:104ED00000000000C8CC0400C8CC0400E3010000BE
:104EE0000A000000F81C040000000000D4CC0400FC
:104EF000D4CC0400E40100000A000000021D0400FC
:104F000000000000E5CC0400E5CC0400E501000051
:104F10000A0000000C1D040000000000F4CC040096
:104F2000F4CC0400E60100000A000000161D040095
:104F30000000000006CD040006CD0400E7010000DB
:104F40000A000000201D04000000000014CD040031
:104F500014CD0400E80100000A0000002A1D04002E
:104F6000000000002ACD04002ACD0400E901000061
:104F70000A000000341D0400000000003FCD0400C2
:104F80003FCD0400EA0100000A0000003E1D0400BD
:104F90000000000053CD040053CD0400EB010000DD
:104FA0000A000000481D04000000000068CD040055
:104FB00068CD0400EC0100000A000000521D04004E
:104FC0000000000075CD040075CD0400ED01000067
:104FD0000A0000005C1D0400000000008ACD0400EF
:104FE0008ACD0400EE0100000A000000661D0400E6
:104FF0000000000097CD040097CD0400EF010000F1
:105000000A000000701D040000000000A2CD040092
:10501000A2CD0400F00100000A0000007A1D040087
:1050200000000000B5CD0400B5CD0400F101000082
:105030000A000000841D040000000000CBCD040025
:10504000CBCD0400F20100000A0000008E1D040018
:1050500000000000E1CD0400E1CD0400F3010000F8
:105060000A000000981D040000000000F3CD0400B9
:10507000F3CD0400F40100000A000000A21D0400AA
:1050800000000000FFCD0400FFCD0400F50100008A
:105090000A000000AC1D04000000000005CE040062
:1050A00005CE0400F60100000A000000B61D040051
:1050B0000000000017CE040017CE0400F701000026
:1050C00003000000C01D0400000000002CCE0400FE
:1050D00035CE0400F801000005000000C31D0400E7
:1050E000000000003ECE04003ECE0400F9010000A6
:1050F00006000000C81D04000000000050CE04009F
:1051000050CE0400FA01000006000000CE1D04008D
:105110000000000060CE040060CE0400FB0100002F
:1051200007000000D41D04000000000077CE04003A
:1051300077CE0400FC01000007000000DB1D040026
:105140000000000090CE040090CE0400FD0100009D
:1051500003000000E21D040000000000A4CE0400D3
:10516000A4CE0400FE01000003000000E51D0400C1
:10517000000000000000000000000000000000002F
:10518000000000000000000000000000AECE04009F
:10519000B5CE04000002000002000000E81D04007B
:1051A00000000000D4CE0400DECE040001020000A6
:1051B00003000000EA1D040000000000ECCE040023
:1051C000F7CE04000202000003000000ED1D040001
:1051D000000000000ACF04000ACF04000302000010
:1051E00003000000F01D04000000000013CF0400C5
:1051F00013CF04000402000003000000F31D0400AC
:10520000000000001ECF04002ACF040005020000A9
:1052100003000000F61D04000000000041CF040060
:1052200041CF04000602000003000000F91D040045
:10523000000000004BCF04004BCF04000702000029
:1052400004000000FC1D04000000000059CF040011
:1052500059CF04000802000004000000001E0400F2
:105260000000000068CF040068CF040009020000BD
:1052700004000000041E04000000000076CF0400BB
:1052800076CF04000A02000004000000081E04009B
:105290000000000083CF040083CF04000B02000055
:1052A000040000000C1E0400000000008CCF04006D
:1052B0008CCF04000C02000004000000101E04004B
:1052C0000000000099CF040099CF04000D020000F7
:1052D00004000000141E040000000000AECF040013
:1052E000AECF04000E02000004000000181E0400EF
:1052F00000000000BDCF0400BDCF04000F0200007D
:10530000040000001C1E040000000000D2CF0400B6
:10531000D2CF04001002000004000000201E040090
:1053200000000000EACF0400EACF040011020000F0
:1053300004000000241E04000000000002D004004D
:1053400002D004001202000004000000281E040025
:105350000000000014D0040014D004001302000068
:10536000040000002C1E04000000000027D00400F0
:1053700027D004001402000004000000301E0400C6
:105380000000000034D0040034D0040015020000F6
:1053900004000000341E04000000000043D004009C
:1053A00043D004001602000004000000381E040070
:1053B0000000000054D0040054D004001702000084
:1053C000040000003C1E04000000000065D0040042
:1053D00065D004001802000004000000401E040014
:1053E0000000000077D0040077D00400190200000C
:1053F00004000000441E0400000000008AD00400E5
:105400008AD004001A02000004000000481E0400B4
:10541000000000009DD004009DD004001B0200008D
:10542000040000004C1E040000000000AFD0040087
:10543000AFD004001C02000004000000501E040055
:1054400000000000C4D00400C4D004001D0200000D
:1054500004000000541E040000000000D8D0040026
:10546000D8D004001E02000004000000581E0400F2
:1054700000000000EDD00400EDD004001F02000089
:10548000040000005C1E04000000000001D10400C4
:1054900001D104002002000004000000601E04008E
:1054A0000000000011D1040011D10400210200000D
:1054B00004000000641E04000000000022D104006B
:1054C00022D104002202000004000000681E040033
:1054D0000000000033D1040033D104002302000097
:1054E000040000006C1E04000000000046D104000F
:1054F00046D104002402000004000000701E0400D5
:10550000000000005AD104005AD104002502000016
:1055100004000000741E0400000000006ED10400AE
:105520006ED104002602000004000000781E040072
:10553000000000007FD104007FD10400270200009A
:10554000040000007C1E04000000000091D1040053
:1055500091D104002802000004000000801E040015
:1055600000000000A3D10400A3D104002902000020
:1055700004000000841E040000000000B7D10400F5
:10558000B7D104002A02000004000000881E0400B5
:1055900000000000CCD10400CCD104002B0200009C
:1055A000040000008C1E040000000000E1D1040093
:1055B000E1D104002C02000004000000901E040051
:1055C00000000000F4D10400F4D104002D0200001A
:1055D00004000000941E04000000000006D2040035
:1055E00006D204002E02000004000000981E0400F1
:1055F000000000001ED204001ED204002F02000092
:10560000040000009C1E04000000000036D20400CC
:1056100036D204003002000004000000A01E040086
:10562000000000004CD204004CD204003102000003
:1056300004000000A41E04000000000062D2040068
:1056400062D204003202000004000000A81E040020
:105650000000000076D2040076D20400330200007D
:1056600004000000AC1E04000000000088D204000A
:1056700088D204003402000004000000B01E0400C0
:105680000000000099D2040099D204003502000005
:1056900004000000B41E040000000000ABD20400AF
:1056A000ABD204003602000004000000B81E040063
:1056B00000000000BFD20400BFD204003702000087
:1056C00004000000BC1E040000000000CED2040054
:1056D000CED204003802000004000000C01E040006
:1056E00000000000E4D20400E4D20400390200000B
:1056F00004000000C41E040000000000F8D20400F2
:10570000F8D204003A02000004000000C81E0400A1
:105710000000000009D3040009D304003B0200008C
:1057200004000000CC1E0400000000001AD3040096
:105730001AD304003C02000004000000D01E040044
:10574000000000002CD304002CD304003D02000014
:1057500004000000D41E0400000000003FD3040039
:105760003FD304003E02000004000000D81E0400E5
:105770000000000051D3040051D304003F02000098
:1057800004000000DC1E04000000000064D30400DC
:1057900064D304004002000004000000E01E040086
:1057A000000000007CD304007CD304004102000010
:1057B00004000000E41E04000000000090D3040078
:1057C00090D304004202000004000000E81E040020
:1057D00000000000A4D30400A4D30400430200008E
:1057E00004000000EC1E040000000000B9D3040017
:1057F000B9D304004402000004000000F01E0400BD
:1058000000000000C9D30400C9D304004502000011
:1058100004000000F41E040000000000DAD30400BD
:10582000DAD304004602000004000000F81E040061
:1058300000000000EAD30400EAD30400470200009D
:1058400004000000FC1E040000000000FDD3040062
:10585000FDD304004802000004000000001F040003
:105860000000000011D4040011D40400490200001B
:1058700004000000041F04000000000024D4040001
:1058800024D404004A02000004000000081F0400A1
:105890000000000035D4040035D404004B020000A1
:1058A000040000000C1F04000000000047D40400A6
:1058B00047D404004C02000004000000101F040044
:1058C0000000000058D4040058D404004D02000029
:1058D00004000000141F0400000000006CD4040049
:1058E0006CD404004E02000004000000181F0400E5
:1058F0000000000081D4040081D404004F020000A5
:10590000040000001C1F04000000000095D40400E7
:1059100095D404005002000004000000201F040081
:1059200000000000ACD40400ACD40400510200001C
:1059300004000000241F040000000000C3D4040081
:10594000C3D404005202000004000000281F040019
:1059500000000000D7D40400D7D404005302000094
:10596000040000002C1F040000000000E8D4040024
:10597000E8D404005402000004000000301F0400BA
:1059800000000000FAD40400FAD40400550200001C
:1059900004000000341F0400000000000BD50400C8
:1059A0000BD504005602000004000000381F04005C
:1059B0000000000024D5040024D504005702000094
:1059C000040000003C1F04000000000040D504005B
:1059D00040D504005802000004000000401F0400ED
:1059E0000000000059D5040069D5040059020000E8
:1059F00004000000441F0400000000007CD50400E7
:105A00008AD504005A02000004000000481F040068
:105A100000000000A2D50400A2D504005B02000033
:105A2000040000004C1F040000000000B3D5040077
:105A3000B3D504005C02000004000000501F040005
:105A400000000000C1D50400C1D504005D020000C3
:105A500004000000541F040000000000CFD5040023
:105A6000D9D504005E02000004000000581F0400A5
:105A700000000000F1D50400F1D504005F02000031
:105A8000040000005C1F04000000000001D60400B8
:105A900001D604006002000004000000601F040042
:105AA0000000000014D6040014D6040061020000B7
:105AB00004000000641F04000000000025D604005C
:105AC00025D604006202000004000000681F0400E4
:105AD0000000000037D6040037D60400630200003F
:105AE000040000006C1F0400000000004DD60400FC
:105AF0004DD604006402000004000000701F040082
:105B0000000000005FD604005FD6040065020000BC
:105B100004000000741F0400000000006ED60400A2
:105B20006ED604006602000004000000781F040026
:105B3000000000007FD604007FD60400670200004A
:105B4000040000007C1F04000000000098D6040040
:105B500098D604006802000004000000801F0400C2
:105B600000000000B0D60400B0D6040069020000B6
:105B700004000000841F040000000000C3D60400DD
:105B8000C3D604006A02000004000000881F04005D
:105B900000000000D5D60400D5D604006B0200003A
:105BA000040000008C1F040000000000F0D6040078
:105BB000F0D604006C02000004000000901F0400F6
:105BC00000000000FDD604000DD704006D020000A7
:105BD00004000000941F0400000000002AD7040005
:105BE0002AD704006E02000004000000981F040081
:105BF000000000003CD704004BD704006F020000F7
:105C0000040000009C1F0400000000005FD7040097
:105C10005FD704007002000005000000A01F040010
:105C20000000000070D7040070D70400710200006B
:105C300005000000A51F0400000000007ED704003E
:105C40007ED704007202000005000000AA1F0400B5
:105C50000000000090D7040090D7040073020000F9
:105C600005000000AF1F040000000000A6D70400DC
:105C7000A6D704007402000005000000B41F040051
:105C800000000000B9D70400B9D704007502000075
:105C900005000000B91F040000000000CBD704007D
:105CA000CBD704007602000005000000BE1F0400F0
:105CB00000000000DED70400F2D7040077020000E5
:105CC00006000000C31F04000000000006D8040006
:105CD00014D804007802000006000000C91F040068
:105CE0000000000026D8040039D804007902000022
:105CF00006000000CF1F0400000000004BD8040085
:105D00005DD804007A02000006000000D51F0400E0
:105D10000000000074D8040086D804007B02000054
:105D200006000000DB1F0400000000009ED80400F5
:105D30009ED804007C02000004000000E11F040063
:105D400000000000B1D80400B1D804007D020000BA
:105D500004000000E51F040000000000C2D8040099
:105D6000C2D804007E02000004000000E91F040005
:105D700000000000DCD80400DCD804007F02000032
:105D800004000000ED1F040000000000EAD8040039
:105D9000EAD804008002000004000000F11F0400A3
:105DA00000000000F9D80400F9D8040081020000C6
:105DB00004000000F51F0400000000000ED90400DC
:105DC0000ED904008202000005000000F91F040043
:105DD000000000001ED9040027D90400830200003F
:105DE00008000000FE1F04000000000030D904007D
:105DF00030D90400840200000900000006200400DD
:105E0000000000004FD904005FD9040085020000A3
:105E1000010000000F2004000000000045D904002C
:105E200055D9040086020000010000001020040083
:105E30000000000065D9040081D904008702000039
:105E40000100000011200400000000009DD90400A2
:105E5000AED90400880200000A00000012200400ED
:105E600000000000C7D90400CDD904008902000059
:105E70000A0000001C20040000000000F0D904000B
:105E8000FDD904008A0200000000000000000000AC
:105E9000000000000ADA040017DA04008B02000098
:105EA00000000000000000000000000024DA0400F0
:105EB00031DA04008C020000000000000000000045
:105EC000000000003EDA04004BDA04008D020000FE
:105ED00000000000000000000000000058DA04008C
:105EE00065DA04008E0200000000000000000000DF
:105EF0000000000072DA04007FDA04008F02000064
:105F00000000000000000000000000008CDA040027
:105F100095DA04009002000000000000000000007C
:105F2000000000009EDA0400A7DA040091020000DD
:105F3000000000000000000000000000B0DA0400D3
:105F4000BEDA040092020000000000000000000021
:105F500000000000CCDA0400DADA0400930200004A
:105F6000000000000000000000000000E8DA04006B
:105F7000EFDA040094020000030000002620040071
:105F800000000000FDDA0400FDDA040095020000C4
:105F900003000000292004000000000008DB0400CA
:105FA00008DB040096020000070000002C2004001B
:105FB000000000000FDB04001DDB0400970200005E
:105FC0000800000033200400000000003BDB040058
:105FD0004EDB040098020000080000003B20040093
:105FE000000000005BDB04006DDB04009902000090
:105FF00008000000432004000000000079DB0400DA
:1060000089DB04009A020000030000004B2004001A
:1060100000000000A1DB0400B4DB04009B020000D0
:10602000080000004E20040000000000C0DB040057
:10603000CBDB04009C020000090000005620040095
:1060400000000000E3DB0400EEDB04009D02000022
:10605000090000005F2004000000000006DC0400CE
:1060600011DC04009E02000009000000682004000A
:106070000000000029DC040034DC04009F02000062
:10608000090000007120040000000000C4DB0400CF
:106090004CDC0400A0020000090000007A2004008B
:1060A00000000000E7DB040053DC0400A102000054
:1060B0000900000083200400000000000ADC040046
:1060C0005ADC0400A2020000090000008C20040039
:1060D000000000002DDC040061DC0400A3020000CD
:1060E00009000000952004000000000068DC0400A6
:1060F00068DC0400A4020000010000009E200400EF
:106100000000000080DC040080DC0400A502000028
:10611000030000009F200400000000008DDC04004C
:106120008DDC0400A602000002000000A220040092
:106130000000000091DC040091DC0400A7020000D4
:1061400003000000A42004000000000099DC04000B
:1061500099DC0400A802000008000000A720040049
:1061600000000000B5DC0400B5DC0400A90200005A
:1061700009000000AF20040000000000BDDC0400A6
:10618000BDDC0400AA02000009000000B8200400E1
:1061900000000000C5DC0400C5DC0400AB02000008
:1061A00009000000C120040000000000CDDC040054
:1061B000CDDC0400AC02000008000000CA2004008E
:1061C00000000000D8DC0400D8DC0400AD020000B0
:1061D00008000000D220040000000000E3DC0400FE
:1061E000E3DC0400AE02000008000000DA20040036
:1061F00000000000EEDC0400EEDC0400AF02000052
:1062000008000000E220040000000000F9DC0400A7
:10621000F9DC0400B002000008000000EA200400DD
:106220000000000004DD040004DD0400B1020000F1
:1062300008000000F2200400000000000FDD040050
:106240000FDD0400B202000008000000FA20040084
:10625000000000001ADD04001ADD0400B302000093
:1062600008000000022104000000000025DD0400F9
:1062700025DD0400B4020000080000000A2104002B
:106280000000000030DD040030DD0400B502000035
:106290000800000012210400000000003BDD0400A3
:1062A0003BDD0400B6020000080000001A210400D3
:1062B0000000000046DD040046DD0400B7020000D7
:1062C00008000000222104000000000051DD04004D
:1062D00051DD0400B8020000080000002A2104007B
:1062E000000000005CDD04005CDD0400B902000079
:1062F00008000000322104000000000067DD0400F7
:1063000067DD0400BA020000080000003A21040022
:106310000000000072DD040072DD0400BB0200001A
:106320000800000042210400000000007DDD0400A0
:106330007DDD0400BC020000080000004A210400CA
:106340000000000088DD040088DD0400BD020000BC
:1063500008000000522104000000000093DD04004A
:1063600093DD0400BE020000080000005A21040072
:10637000000000009EDD04009EDD0400BF0200005E
:10638000080000006221040000000000A9DD0400F4
:10639000A9DD0400C0020000050000006A2104001D
:1063A00000000000B3DD0400B3DD0400C102000002
:1063B000050000006F21040000000000BDDD0400A6
:1063C000BDDD0400C20200000500000074210400CD
:1063D00000000000C7DD0400C7DD0400C3020000A8
:1063E000050000007921040000000000D1DD040058
:1063F000D1DD0400C4020000050000007E2104007D
:1064000000000000DBDD0400DBDD0400C50200004D
:10641000050000008321040000000000E5DD040009
:10642000E5DD0400C602000005000000882104002C
:1064300000000000EFDD0400EFDD0400C7020000F3
:10644000050000008D21040000000000F9DD0400BB
:10645000F9DD0400C80200000500000092210400DC
:106460000000000003DE040003DE0400C902000097
:106470000500000097210400000000000DDE04006C
:106480000DDE0400CA020000050000009C2104008B
:106490000000000017DE040017DE0400CB0200003D
:1064A00005000000A12104000000000021DE04001E
:1064B00021DE0400CC02000005000000A62104003B
:1064C000000000002BDE04002BDE0400CD020000E3
:1064D00005000000AB2104000000000035DE0400D0
:1064E00035DE0400CE02000005000000B0210400EB
:1064F000000000003FDE04003FDE0400CF02000089
:1065000005000000B52104000000000049DE040081
:1065100049DE0400D002000005000000BA2104009A
:106520000000000053DE040053DE0400D10200002E
:1065300005000000BF210400000000005DDE040033
:106540005DDE0400D202000005000000C42104004A
:106550000000000067DE040067DE0400D3020000D4
:1065600005000000C92104000000000071DE0400E5
:1065700071DE0400D402000005000000CE210400FA
:10658000000000007BDE04007BDE0400D50200007A
:1065900005000000D32104000000000085DE040097
:1065A00085DE0400D602000005000000D8210400AA
:1065B000000000008FDE04008FDE0400D702000020
:1065C00005000000DD2104000000000099DE040049
:1065D00099DE0400D802000005000000E22104005A
:1065E00000000000A3DE0400A3DE0400D9020000C6
:1065F00005000000E721040000000000ADDE0400FB
:10660000ADDE0400DA02000005000000EC21040009
:1066100000000000B7DE0400B7DE0400DB0200006B
:1066200005000000F121040000000000C1DE0400AC
:10663000C1DE0400DC02000005000000F6210400B9
:1066400000000000CBDE0400CBDE0400DD02000011
:1066500005000000FB21040000000000D5DE04005E
:10666000D5DE0400DE020000050000000022040068
:1066700000000000DFDE0400DFDE0400DF020000B7
:10668000050000000522040000000000F6DE040002
:10669000F6DE0400E0020000050000000A2204000B
:1066A000000000000DDF04000DDF0400E102000027
:1066B000050000000F2204000000000024DF040099
:1066C00024DF0400E20200000500000014220400A0
:1066D000000000003BDF04003BDF0400E302000099
:1066E00005000000192204000000000052DF040031
:1066F00052DF0400E4020000050000001E22040036
:106700000000000069DF040069DF0400E50200000A
:1067100005000000232204000000000080DF0400C8
:1067200080DF0400E60200000500000028220400CB
:106730000000000097DF040097DF0400E70200007C
:10674000050000002D22040000000000AFDF04005F
:10675000AFDF0400E8020000050000003222040060
:1067600000000000C7DF0400C7DF0400E9020000EA
:10677000050000003722040000000000DFDF0400F5
:10678000E9DF0400EA020000040000003C220400EB
:1067900000000000FBDF04000AE00400EB02000040
:1067A00003000000402204000000000021E004007B
:1067B00032E00400EC020000030000004322040069
:1067C000000000004CE004005AE00400ED0200006C
:1067D00000000000000000000000000061E0040074
:1067E0006FE00400EE020000000000000000000066
:1067F0000000000076E0040087E00400EF020000E3
:106800000B000000462204000000000098E0040095
:10681000A9E00400F00200000B0000005122040077
:1068200000000000BAE00400CBE00400F102000028
:106830000B0000005C22040000000000DCE004000B
:10684000EDE00400F20200000800000067220400EE
:1068500000000000FEE004000FE10400F30200006D
:10686000080000006F2204000000000020E1040086
:1068700031E10400F4020000080000007722040067
:106880000000000042E1040053E10400F5020000B2
:10689000080000007F2204000000000064E1040002
:1068A00075E10400F60200000800000087220400E1
:1068B0000000000086E1040097E10400F7020000F8
:1068C000080000008F22040000000000A8E104007E
:1068D000BAE10400F802000000000000000000001F
:1068E00000000000CCE10400DEE10400F902000039
:1068F000000000000000000000000000F0E10400C3
:1069000002E20400FA0200000000000000000000A3
:106910000000000014E2040026E20400FB02000074
:1069200000000000000000000000000038E2040049
:106930004AE20400FC020000000000000000000029
:10694000000000005CE204006EE20400FD020000B2
:1069500000000000000000000000000080E20400D1
:1069600091E20400FE0200000800000097220400EB
:1069700000000000A2E20400B3E20400FF020000F5
:10698000080000009F22040000000000C4E2040090
:10699000D5E204000003000008000000A722040064
:1069A00000000000E6E2040001E30400010300002F
:1069B00003000000AF2204000000000025E30400F3
:1069C0003EE304000203000003000000B2220400C2
:1069D0000000000060E3040072E304000303000011
:1069E00003000000B52204000000000000000000C9
:1069F0000000000000000000000000000000000097
:106A0000000000008CE3040091E304000503000093
:106A100006000000B8220400000000000000000092
:106A20000000000000000000000000000000000066
:106A30000000000000000000000000000000000056
:106A400000000000000000000000000096E30400C9
:106A50009FE304000803000008000000BE220400B9
:106A600000000000A8E30400B1E3040009030000F3
:106A700008000000C622040000000000BAE3040081
:106A8000C3E304000A03000008000000CE22040053
:106A900000000000CCE30400D5E304000B03000079
:106AA00008000000D62204000000000081F104006C
:106AB0008EF104000C03000008000000DE22040038
:106AC00000000000CFF10400E5F104000D03000018
:106AD00008000000E622040000000000DEE30400DD
:106AE000F2E304000E03000009000000EE2204009F
:106AF0000000000005E4040013E404000F0300009C
:106B000009000000F7220400000000002CE404004B
:106B10002CE404001003000008000000002304001F
:106B2000000000003FE404004CE4040011030000F6
:106B30000800000008230400000000005AE40400DC
:106B40005AE40400120300000B00000010230400AC
:106B50000000000075E4040075E404001303000065
:106B60000B0000001B230400000000008DE4040063
:106B70008DE4040014030000090000002623040033
:106B8000000000009CE404009CE4040015030000E5
:106B9000090000002F23040000000000ABE4040003
:106BA000ABE40400160300000900000038230400D1
:106BB00000000000BAE40400BAE404001703000077
:106BC000070000004123040000000000D1E404009D
:106BD000D1E404001803000007000000482304006B
:106BE00000000000E6E40400E6E4040019030000ED
:106BF000080000004F23040000000000F8E4040037
:106C0000F8E404001A030000080000005723040001
:106C1000000000000AE504000AE504001B03000070
:106C2000080000005F230400000000001CE50400D1
:106C30001CE504001C03000008000000672304009A
:106C4000000000002EE504002EE504001D030000F6
:106C5000080000006F230400000000003AE5040073
:106C60003AE504001E03000008000000772304003A
:106C70000000000049E5040049E504001F0300008E
:106C8000080000007F2304000000000058E5040015
:106C900058E50400200300000800000087230400DA
:106CA0000000000067E5040067E504002103000020
:106CB000080000008F2304000000000076E50400B7
:106CC00076E5040022030000090000009723040079
:106CD0000000000086E5040086E5040023030000B0
:106CE00009000000A02304000000000096E5040055
:106CF00096E504002403000006000000A923040018
:106D000000000000A0E50400A0E504002503000049
:106D100005000000AF23040000000000AAE5040005
:106D2000AAE504002603000005000000B4230400C7
:106D300000000000B4E50400D8E5040027030000CB
:106D400006000000B923040000000000FFE5040075
:106D500021E604002803000006000000BF23040011
:106D60000000000046E6040050E60400290300008D
:106D700006000000C52304000000000060E60400D7
:106D800074E604002A03000006000000CB23040080
:106D90000000000087E60400EDE504002B0300007E
:106DA00006000000D12304000000000049E60400B2
:106DB00036E604002C03000006000000D723040080
:106DC0000000000090E6040097E604002D03000098
:106DD00006000000DD23040000000000A5E604001A
:106DE000A5E604002E0300000000000000000000E3
:106DF00000000000B0E60400B9E604002F03000024
:106E000006000000E323040000000000CBE60400BD
:106E1000DCE604003003000006000000E923040063
:106E200000000000F0E6040004E704003103000065
:106E300006000000EF2304000000000019E7040032
:106E40002BE704003203000006000000F5230400D5
:106E5000000000003EE704003EE7040033030000AA
:106E600007000000FB2304000000000063E70400AB
:106E700063E704003403000007000000022404005C
:106E80000000000083E7040083E7040035030000EE
:106E9000070000000924040000000000A0E704002F
:106EA000A0E70400360300000700000010240400DF
:106EB00000000000C2E70400C2E70400370300003E
:106EC000070000001724040000000000DFE70400B2
:106ED000DFE7040038030000070000001E24040060
:106EE0000000000004E8040004E804003903000086
:106EF00007000000252404000000000029E8040029
:106F000029E804003A030000070000002C240400D4
:106F1000000000004EE804004EE804003B030000BF
:106F200007000000332404000000000073E80400A0
:106F300073E804003C030000070000003A2404004A
:106F400000000000A0E80400A0E804003D030000E9
:106F5000070000004124040000000000CDE8040008
:106F6000CDE804003E0300000700000048240400B0
:106F700000000000F6E80400F6E804003F0300000B
:106F8000070000004F2404000000000013E9040083
:106F900013E9040040030000070000005624040029
:106FA0000000000038E9040038E904004103000053
:106FB000070000005D240400000000005DE90400FB
:106FC0005DE904004203000007000000642404009F
:106FD0000000000082E9040082E90400430300008D
:106FE000070000006B24040000000000A7E9040073
:106FF000A7E9040044030000070000007224040015
:1070000000000000CFE90400CFE9040045030000C0
:10701000070000007924040000000000F7E90400E4
:10702000F7E9040046030000070000008024040084
:10703000000000001FEA04001FEA040047030000EC
:107040000700000087240400000000003EEA04005E
:107050003EEA040048030000070000008E240400FC
:107060000000000065EA040065EA0400490300002E
:107070000700000095240400000000008CEA0400D2
:107080008CEA04004A030000070000009C2404006E
:1070900000000000B3EA0400B3EA04004B03000060
:1070A00007000000A324040000000000DDEA040043
:1070B000DDEA04004C03000007000000AA240400DD
:1070C0000000000007EB040007EB04004D03000084
:1070D00007000000B12404000000000019EB0400C8
:1070E00019EB04004E03000007000000B824040060
:1070F000000000002EEB04002EEB04004F03000004
:1071000007000000BF2404000000000040EB040062
:1071100040EB04005003000007000000C6240400F8
:107120000000000055EB040068EB04005103000070
:1071300008000000CD2404000000000089EB0400DA
:1071400092EB04005203000008000000D524040064
:1071500000000000AAEB0400B5EB0400530300009C
:1071600008000000DD24040000000000CFEB040054
:10717000F4EB04005403000008000000E5240400C0
:107180000000000023EC04004AEC0400550300005A
:1071900008000000ED240400000000007BEC040067
:1071A00099EC04005603000008000000F5240400D8
:1071B00000000000C2EC0400C7EC0400570300000C
:1071C000000000000000000000000000CCEC040003
:1071D000D8EC04005803000009000000FD2404005E
:1071E00000000000F0EC0400FCEC04005903000077
:1071F00003000000062504000000000010ED04005C
:107200002AED04005A0300000800000009250400CC
:10721000000000003FED04003FED04005B030000B0
:107220000300000011250400000000004BED0400E5
:107230004BED04005C030000030000001425040073
:10724000000000005CED04005CED04005D03000044
:107250000300000017250400000000006AED040090
:107260006AED04005E030000030000001A2504001C
:107270000000000078ED040078ED04005F030000DA
:10728000030000001D2504000000000093ED040031
:1072900093ED0400600300000300000020250400BB
:1072A00000000000A3ED0400A3ED04006103000052
:1072B000030000002325040000000000AFED0400DF
:1072C000AFED040062030000030000002625040067
:1072D00000000000C9ED0400C9ED040063030000D4
:1072E000030000002925040000000000E2ED040076
:1072F000E2ED040064030000030000002C250400FC
:1073000000000000EEED0400EEED04006503000057
:10731000030000002F2504000000000006EE04001A
:1073200006EE04006603000003000000322504009E
:107330000000000018EE040018EE040067030000CF
:107340000300000035250400000000002DEE0400BD
:107350002DEE04006803000003000000382504003F
:107360000000000045EE040045EE04006903000043
:10737000030000003B2504000000000059EE04005B
:1073800059EE04006A030000030000003E250400DB
:107390000000000075EE040075EE04006B030000B1
:1073A0000300000041250400000000007CEE040002
:1073B0007CEE04006C030000030000004425040080
:1073C0000000000082EE040082EE04006D03000065
:1073D0000300000047250400000000008FEE0400B9
:1073E0008FEE04006E030000030000004A25040035
:1073F0000000000097EE040097EE04006F03000009
:10740000030000004D25040000000000A4EE04006D
:10741000A4EE0400700300000300000050250400E7
:1074200000000000B4EE0400B4EE0400710300009C
:10743000030000005325040000000000C2EE040019
:10744000C2EE040072030000030000005625040091
:1074500000000000DAEE0400DAEE0400730300001E
:10746000030000005925040000000000F4EE0400B1
:10747000F4EE040074030000030000005C25040027
:107480000000000009EF040009EF0400750300008C
:10749000030000005F250400000000001DEF040051
:1074A0001DEF0400760300000300000062250400C5
:1074B0000000000031EF040031EF0400770300000A
:1074C00003000000652504000000000043EF0400F5
:1074D00043EF040078030000030000006825040067
:1074E0000000000050EF040050EF0400790300009A
:1074F000030000006B2504000000000060EF0400A2
:1075000060EF04007A030000030000006E25040011
