:1000000000300F000000000000000000E05A050072
:10001000451703000C5C050031A50300B99E0300E1
:100020000CE20300AC40050008E20300C9A903008C
:10003000BD160300188D0400252600006D70010018
:10004000A0400500451403000C5C05001D220000C3
:10005000F5180300105C0500205B0500C1280000B6
:10006000E54A010001FD010068F10B00845B050019
:10007000494D010001E10200ED210000999B0300C0
:10008000912B000078CE0800512200002D2A00009C
:1000900070CE080080400500352100009440050026
:1000A000D9AB0000599C03006D66020001CE03002D
:1000B00060CD0800E04A0500045B050068F10B0014
:1000C000C0420500A05B05004D83020068D1080016
:1000D00068110F0059A10300105C0600652800009C
:1000E000005B05002929000019E00200145B0500EF
:0C00F000ED6A0200105C0700085B0500D0
:00000001FF
